:020000040800F2
:1000000000000120A92E00080F270008152700086E
:100010001B270008212700082727000800000000F0
:100020000000000000000000000000002D27000874
:100030003927000800000000452700085127000864
:10004000F92E0008F92E0008F92E0008F92E0008F4
:10005000F92E0008F92E0008F92E0008F92E0008E4
:10006000F92E0008F92E0008F92E00085D27000877
:1000700071270008F92E0008F92E0008F92E000853
:10008000F92E0008F92E0008F92E0008F92E0008B4
:10009000F92E0008F92E0008F92E0008F92E0008A4
:1000A000F92E0008F92E0008F92E0008852700080F
:1000B000F92E0008F92E0008F92E0008F92E000884
:1000C000F92E0008F92E0008F92E0008F92E000874
:1000D00099270008AD270008F92E0008F92E00081E
:1000E000F92E0008F92E0008F92E0008F92E000854
:1000F000F92E0008F92E0008F92E0008F92E000844
:10010000F92E0008F92E0008C1270008F92E000872
:10011000F92E0008F92E0008F92E0008F92E000823
:10012000F92E0008F92E0008F92E0008F92E000813
:08013000F92E0008F92E000869
:1001400010B5054C237833B9044B13B10448AFF311
:1001500000800123237010BD60000020000000001B
:1001600060C1000808B5034B1BB103490348AFF356
:10017000008008BD000000006400002060C100088D
:1001800001F0FF01102A2BDB10F0070F08D010F848
:10019000013B013A8B422DD010F0070F42B3F6D14C
:1001A000F0B441EA012141EA014122F007047FF065
:1001B00000070023F0E80256083C85EA010586EABC
:1001C000010685FA47F5A3FA87F586FA47F6A5FAF8
:1001D00087F68EB9EED1F0BC01F0FF0102F0070204
:1001E00032B110F8013B013A83EA010313B1F8D1AF
:1001F0000020704701387047002D06BF3546033890
:10020000073815F0010F07D1013015F4807F02BFC8
:10021000013015F4C03F0130F0BC0138704700BF19
:1002200053B94AB9002908BF00281CBF4FF0FF315D
:100230004FF0FF3000F070B9ADF1080C6DE904CE5D
:1002400000F006F8DDF804E0DDE9022304B07047B1
:100250002DE9F047089E0D4604460F46002B4AD173
:100260008A42944665D9B2FA82F343B102FA03FC9A
:10027000C3F120029F4020FA02F217439C404FEA4C
:100280001C4E1FFA8CF5B7FBFEF1220C0EFB11770A
:1002900042EA074201FB05F090420AD91CEB020238
:1002A00001F1FF3780F01B81904240F21881023942
:1002B0006244121AA4B2B2FBFEF00EFB102244EA12
:1002C000024400FB05F5A5420AD91CEB040400F129
:1002D000FF3280F00681A54240F203816444023877
:1002E00040EA0140641B00211EB1DC400023C6E946
:1002F0000043BDE8F0878B4208D9002E00F0EC8067
:100300000021C6E900050846BDE8F087B3FA83F18D
:10031000002949D1AB4202D3824200F2F780841A0D
:1003200065EB030201201746002EE2D0C6E9004724
:10033000DFE702B9FFDEB2FA82F3002B40F08F80D4
:100340008A1A4FEA1C471FFA8CFE0121B2FBF7F50F
:1003500007FB1520220C42EA00420EFB05F09042FA
:1003600008D91CEB020205F1FF3802D2904200F2DC
:10037000CA804546121AA4B2B2FBF7F007FB10225E
:1003800044EA02440EFB00FEA64508D91CEB040417
:1003900000F1FF3202D2A64500F2BA801046A4EB6B
:1003A0000E0440EA05409FE7C1F120078B4022FA86
:1003B00007FC4CEA030C05FA01F420FA07F3FD40B0
:1003C000234300FA01F94FEA1C401FFA8CFEB5FBEB
:1003D000F0F81C0C00FB185544EA054408FB0EF528
:1003E000A54202FA01F20BD91CEB040408F1FF3A12
:1003F00080F08780A54240F28480A8F1020864441E
:10040000641B9DB2B4FBF0F300FB134445EA0444C3
:1004100003FB0EFEA64508D91CEB040403F1FF30D4
:100420006BD2A64569D9023B644443EA0840A0FB6D
:100430000283A4EB0E049C42C6461D4655D352D0FF
:1004400056B1B9EB0E0364EB050404FA07F7CB4091
:10045000CC401F43C6E900740021BDE8F087C3F11A
:10046000200102FA03FC20FA01F225FA01F19D4075
:100470002A434FEA1C471FFA8CFEB1FBF7F007FB3B
:100480001015110C41EA054100FB0EF58D4204FAEE
:1004900003F408D91CEB010100F1FF382FD28D4283
:1004A0002DD902386144491B92B2B1FBF7F507FB25
:1004B000151142EA014205FB0EF1914208D91CEBED
:1004C000020205F1FF3816D2914214D9023D62446E
:1004D000521A45EA004139E73146304609E73946C4
:1004E000E7E61046FCE6C145AAD2B8EB020E63EB84
:1004F0000C050138A4E74546EAE7034695E7404680
:10050000D1E7D0467CE7023D624433E708460BE77B
:100510006444023843E700BF704700BF80B586B02F
:1005200000AF78600B46FB700023FB81FB78194617
:10053000786800F043FA0346FB81224B7E221A7052
:1005400001237B6100233B610EE03B697A68134421
:1005500019781C4A7B6913440A461A707B69013377
:100560007B613B6901333B61FB783A699A42ECDB82
:10057000FB891B0A9BB2D9B2124A7B6913440A4613
:100580001A707B6901337B61FB89D9B20D4A7B69A3
:1005900013440A461A707B6901337B61094A7B69FF
:1005A00013447E221A706422002107480BF056F98A
:1005B0006422002105480BF051F900BF1837BD46F1
:1005C00080BD00BF880300207C000020E0000020E8
:1005D00080B586B000AF78600B46FB702F4B72225F
:1005E0001A702E4B9C225A702C4B64229A702B4B03
:1005F000A622DA70294B92221A71284B40225A7196
:10060000264BE0229A717B685A7B244BDA717B6817
:100610009A7B224B1A727B68DA7B204B5A727B687A
:100620001A7C1E4B9A727B685A7C1C4BDA727B6870
:100630009A7C1A4B1A737B68DA7C184B5A73174BE7
:1006400003229A73154BF022DA7310237B61002387
:100650003B610EE03B697A68134419780F4A7B6965
:1006600013440A461A707B6901337B613B6901338D
:100670003B61FB78073B3A699A42EBDB7A690849B0
:10068000064800F061FAF860FB68DBB219460448DE
:10069000FFF744FF00BF1837BD4680BD7C00002037
:1006A000E00000200FB480B582B000AF07F1140362
:1006B0003B603B683A6964210A480BF08BF80948B3
:1006C00000F014F878607B689AB24FF47A730549A9
:1006D000054805F003FF00BF0837BD46BDE8804070
:1006E00004B0704744010020C805002080B485B0E4
:1006F00000AF78600023FB6002E0FB680133FB6021
:100700007B685A1C7A601B78002BF6D1FB68184670
:100710001437BD4680BC704780B485B000AF7860A8
:10072000094B1B6800225A6202E0FB680133FB6040
:10073000054B1B685B6A7A689A42F6D800BF00BF17
:100740001437BD4680BC70477805002080B586B060
:1007500000AF78600B46FB700023FB81FB781946E5
:10076000786800F02BF90346FB81224B7E221A7039
:1007700001237B6100233B610EE03B697A681344EF
:1007800019781C4A7B6913440A461A707B69013345
:100790007B613B6901333B61FB783A699A42ECDB50
:1007A000FB891B0A9BB2D9B2124A7B6913440A46E1
:1007B0001A707B6901337B61FB89D9B20D4A7B6971
:1007C00013440A461A707B6901337B61094A7B69CD
:1007D00013447E221A709622002107480BF03EF83F
:1007E0009622002105480BF039F800BF1837BD46A6
:1007F00080BD00BF54040020A8010020400200205A
:1008000080B586B000AF78600B46FB707B68DA7805
:100810004F4B1A707B681A794D4B5A707B685A7926
:100820004B4B9A707B689A79494BDA707B68DA791E
:10083000474B1A717B681A7A454B5A717B685A7A12
:10084000434B9A717B689A7A414BDA717B68DA7A0A
:100850003F4B1A727B681A7B3D4B5A727B685A7BFE
:100860003B4B9A727B689A7B394BDA727B68DA7BF6
:10087000374B1A737B681A7C354B5A737B685A7CEA
:10088000334B9A737B689A7C314BDA737B68DA7CE2
:100890002F4B1A747B681A7D2D4B5A747B685A7DD6
:1008A0002B4B9A747B689A7D294BDA747B68DA7DCE
:1008B000274B1A75264B03225A75254BF0229A7541
:1008C0007B681A78224BDA757B685A78204B1A7647
:1008D0007B689A781E4B5A761D4B44229A761C4BA5
:1008E0005022DA761A4B41221A77194B50225A7746
:1008F000174B4E229A771F237B6118233B610023FD
:10090000FB6011E03B697A6813441978104A7B69EF
:1009100013440A461A707B6901337B613B690133DA
:100920003B61FB680133FB60FB78FA689A42E9DBC4
:100930007A690849064800F007F9B860BB68DBB27D
:1009400019460448FFF702FF00BF1837BD4680BDB7
:10095000A80100204002002080B485B000AF78607C
:100960004FF0B0439A6C4FF0B0417B6813438B64F7
:100970004FF0B0439A6C7B681340FB60FB6800BF8C
:100980001437BD4680BC704780B500AF0420FFF728
:10099000E3FF0120FFF7E0FF002200210B2002F01F
:1009A000F0FB0B2002F007FC002200210C2002F0DB
:1009B000E8FB0C2002F0FFFB00BF80BD80B487B0D5
:1009C00000AF786039604FF6FF73FB8241F221037C
:1009D0007B8100233B6126E07A683B6913441B78E6
:1009E0001B021AB2B7F9163053401BB2FB82002328
:1009F000FB6012E0B7F91630002B08DAFB8A5B00C7
:100A00001AB2B7F90A3053401BB2FB8202E0FB8AEC
:100A10005B00FB82FB680133FB60FB68072BE9DDB1
:100A20003B6901333B613A693B689A42D4D3FB8A04
:100A300018461C37BD4680BC704780B487B000AFF5
:100A40007860396000237B6100233B610023FB60F9
:100A50000023BB6013E0BB687A6813441B787E2BCD
:100A60000AD17B69002B04D101237B61BB683B6108
:100A700002E0BB68FB6006E0BB680133BB60BA689C
:100A80003B689A42E7DBFA683B699A4204DDFA6800
:100A90003B69D31A013301E04FF0FF3318461C378E
:100AA000BD4680BC704780B485B000AF78603960C7
:100AB0004FF0FF33FB603B68013BBB600BE0BB6862
:100AC0007A6813441B787E2B02D1BB68FB6005E07B
:100AD000BB68013BBB60BB68002BF0DAFB68B3F17D
:100AE000FF3F02D0FB68013301E04FF0FF331846AF
:100AF0001437BD4680BC704780B485B000AF7860C5
:100B000039604FF0FF33FB600023BB600BE0BB6834
:100B10007A6813441B78202B02D1BB68FB6006E087
:100B2000BB680133BB60BA683B689A42EFDBFB6885
:100B3000B3F1FF3F01D0FB6801E04FF0FF331846EF
:100B40001437BD4680BC704780B48FB000AFF860EA
:100B5000B9607A6000237B6300233B63002387F83E
:100B60002F300723BB6200237B6200233B620023FC
:100B7000FB6178E00723BB616FE0FB69FA6813440F
:100B80001B781A46BB6942FA03F303F001033B6189
:100B90003A69BB6A02FA03F35AB297F92F3013434A
:100BA0005BB287F82F30BB6A013BBB623B69002B0D
:100BB0002FD03B6B01333B633B6B052B2BD1BB6AC7
:100BC000002B10DA7B6B5A1C7A631A46BB681344FD
:100BD00097F82F201A707B6A01337B62002387F815
:100BE0002F300723BB620122BB6A02FA03F35BB218
:100BF000DB435AB297F92F3013405BB287F82F309E
:100C0000BB6A013BBB623B6A01333B6200233B632F
:100C100001E000233B63BB6A002B10DA7B6B5A1C9C
:100C20007A631A46BB68134497F82F201A707B6AC0
:100C300001337B62002387F82F300723BB623B6AB6
:100C4000082B07DDBB6A002B04DB7B6A01337B6268
:100C500000233B62BB69013BBB61BB69002B8CDAA3
:100C6000FB690133FB61FA697B689A4282DBBB6AEC
:100C7000062B0BDC7B6B5A1C7A631A46BB68134449
:100C800097F82F201A707B6A01337B6200237B6107
:100C90000AE07B69FA681A447B69B9680B441278E8
:100CA0001A707B6901337B617A697B689A42F0DB59
:100CB0007B687B637B6B18463C37BD4680BC7047C6
:100CC00080B48DB000AFF860B9607A600023FB6239
:100CD0000023BB62002387F8273007233B620023F1
:100CE000FB6152E00723BB6149E0FB69FA681344EA
:100CF0001B781A46BB6942FA03F303F001033B6118
:100D00003B69002B11D0BB6A0133BB623A693B6A75
:100D100002FA03F35AB297F9273013435BB287F80C
:100D200027303B6A013B3B6215E0BB6A052B02D1D1
:100D30000023BB6220E00023BB623A693B6A02FAEF
:100D400003F35AB297F9273013435BB287F8273081
:100D50003B6A013B3B623B6A002B0DDAFB6A5A1C83
:100D6000FA621A46BB68134497F827201A700023CA
:100D700087F8273007233B62BB69013BBB61BB6936
:100D8000002BB2DAFB690133FB61FA697B689A4296
:100D9000A8DB3B6A062B08DCFB6A5A1CFA621A467F
:100DA000BB68134497F827201A7000237B610AE080
:100DB0007B69FA681A447B69B9680B4412781A7027
:100DC0007B6901337B617A697B689A42F0DB7B68DF
:100DD000FB62FB6A18463437BD4680BC704780B45E
:100DE00083B000AF0346FB71FB792F2B06D9FB794B
:100DF000392B03D8FB79303BDBB214E0FB79402B75
:100E000006D9FB79462B03D8FB79373BDBB20AE0E6
:100E1000FB79602B06D9FB79662B03D8FB79573B0E
:100E2000DBB200E0FF2318460C37BD4680BC70479C
:100E300080B485B000AF78604FF0B043DA6C4FF00B
:100E4000B0417B681343CB644FF0B043DA6C7B68EE
:100E50001340FB60FB6800BF1437BD4680BC704781
:100E600080B586B000AF3B1D00221A605A609A60C0
:100E7000DA601A610120FFF7DBFF0220FFF7D8FFDD
:100E80000420FFF7D5FF00224FF40A411F4802F06B
:100E90008FFE002238211E4802F08AFE4FF40A43DA
:100EA0007B600123BB600023FB6002233B613B1D91
:100EB0001946164802F01CFD38237B600123BB60F5
:100EC0000023FB6003233B613B1D1946104802F0E1
:100ED0000FFD03237B604FF40413BB600123FB6011
:100EE0003B1D19464FF0904002F002FD40237B600D
:100EF0004FF40413BB600123FB603B1D19460448FB
:100F000002F0F6FC00BF1837BD4680BD0004004863
:100F10000008004880B582B000AF0346FB71114B5A
:100F200000221A700F4AFB7913720E4B08225A8066
:100F30000C4B04221A710B4B18225A71094B0022D8
:100F40009A71084B0022DA71064BF2225A72054B55
:100F500001229A72034809F011FC00BF0837BD4610
:100F600080BD00BFD802002080B582B000AF78609D
:100F700039600B4B00221A70094B0D225A73084A34
:100F80007B685360064A3B689360054B0B221A73DB
:100F9000034809F021FB00BF0837BD4680BD00BFF4
:100FA000EC02002080B584B000AF78600B46FB7087
:100FB0000021002009F080FCFB781946786808F0D1
:100FC00061FE0F4A07F1080392E8030083E803007B
:100FD00007F10803184608F09AFE40F2FF1008F0E7
:100FE000E5FE012301220021072009F03DF902223C
:100FF0000E21012009F022FA00BF1037BD4680BD46
:1010000078C100082DE9F04FD3B000AFF864FA6C56
:101010009D4B9A4240F0AD860A2387F8EB300023BF
:1010200087F8EA30994B1A7897F8EA30934205D05E
:10103000964B1A7897F8EB30934217D10023C7F8F4
:1010400044310FE0D7F844315A1C904B995C8F4AD9
:10105000D7F844311A440B461370D7F844310133A2
:10106000C7F84431D7F84431332BEBD9874B1B7881
:101070004D2B7ED1854B5B784F2B7AD1834B9B7860
:10108000442B76D1814BDB78452B72D17F4B1B797A
:10109000542B6ED17D4B5B79452B6AD17B4B9B7971
:1010A0004C2B66D1794BDB79452B62D1784B0022F2
:1010B0001A60784B1B781846FFF72CFF42F6E06168
:1010C0004FF49650FFF750FF724B1B781946724849
:1010D000FFF768FF7148FFF7E5FA71497148FFF7BC
:1010E000E1FA714B5B6819467048FFF7DBFA6E4B0B
:1010F0009B6819466E48FFF7D5FA6B4B5B7B194628
:101100006C48FFF7CFFA6C4B1B7819466B48FFF71A
:10111000C9FA694B1B7A19466948FFF7C3FA664B4F
:101120005B8819466748FFF7BDFA634B1B79194680
:101130006548FFF7B7FA604BDB7919466348FFF75C
:10114000B1FA6348FFF7AEFA554809F00BF90021F0
:10115000012009F04FFD6FF07F4008F02FFF5D4B3D
:101160001B789BB21A464949474805F03DFA00F002
:1011700000BE464B1B784D2B40F0AE80434B5B7856
:101180004F2B40F0A980414B9B78442B40F0A4802A
:101190003E4BDB78452B40F09F803C4B1B79442B2A
:1011A00040F09A80394B5B79492B40F09580374B62
:1011B0009B79472B40F09080344BDB79492B40F0F2
:1011C0008B80334B00221A60324B1B781846FFF796
:1011D000A1FE40F6B8314FF49660FFF7C5FE2D4BE7
:1011E0001B7819462C48FFF7DDFE2C48FFF75AFA0A
:1011F0002B492C48FFF756FA2B4B5B6819462B48B6
:10120000FFF750FA284B9B6819462948FFF74AFA1E
:10121000254B5B7B19462748FFF744FA264B1B7882
:1012200019462648FFF73EFA234B1B7A19462448F5
:10123000FFF738FA204B5B8819462248FFF732FA4D
:101240001D4B1B7919462048FFF72CFA1A4BDB7906
:1012500019461E48FFF726FA1D48FFF723FA1048E3
:1012600009F080F80021012009F0C4FC6FF07F40F4
:1012700008F0A4FE174B1B789BB21A46034902489C
:1012800005F0B2F900F075BD5C0600201C030020DB
:101290005805002003000020EC04002080C1000855
:1012A00018D0111AACC10008EC020020D4C100080B
:1012B000E4C1000800C20008D80200201CC20008D7
:1012C00030C2000848C2000860C2000878C20008A6
:1012D0008CC2000801000020594B1B78532B40F0B2
:1012E000C382574B5B78322B40F0BE82544B9B78C5
:1012F000532B40F0B9826B461C46524A00231360C0
:1013000007F1700303224E4918460AF07EFA0023C3
:1013100087F873304C4B3E2118460AF069FAC7F83B
:10132000E400494AD7F8E4309B1AC7F8E030464950
:10133000D7F8E03007F168001A460AF066FA002391
:10134000C7F8403113E007F16802D7F84031134481
:101350001B785B00D9B207F16802D7F840311A4414
:101360000B461370D7F840310133C7F84031D7F836
:101370004021D7F8E0309A42E5DBD7F8E030062B81
:1013800017DCD7F8E030C7F83C310BE007F1680212
:10139000D7F83C311A4440231370D7F83C3101335D
:1013A000C7F83C31D7F83C31062BEFDDE02387F856
:1013B0006E30002387F86F30D7F8E4300133C7F878
:1013C000DC302C21D7F8DC000AF012FAC7F8D8007C
:1013D000D7F8D820D7F8DC30D31AC7F8D430D7F8EC
:1013E000D43007F160001A46D7F8DC100AF00DFA85
:1013F0000023C7F8383113E007F16002D7F838311D
:1014000013441B785B00D9B207F16002D7F838317A
:101410001A440B461370D7F838310133C7F8383106
:10142000D7F83821D7F8D4309A42E5DBD7F8D43052
:10143000062B1EDCD7F8D430C7F8343112E000BFD9
:101440001C030020580500201F03002007F1600244
:10145000D7F834311A4440231370D7F834310133AC
:10146000C7F83431D7F83431062BEFDDE02387F8A5
:101470006630002387F86730D7F8D8300133C7F8D3
:10148000D0303A21D7F8D0000AF0B2F9C7F8CC0032
:10149000D7F8CC20D7F8D030D31AC7F8C830D7F84F
:1014A000C830591C4B1EC7F8C4300A4600233A64A2
:1014B0007B644FF000024FF00003D7E9105630462E
:1014C000C300284643EA50732846C2000A46002358
:1014D000BA63FB634FF000024FF00003D7E90E56EA
:1014E0003046C300284643EA50732846C2000B46E4
:1014F0000733DB08DB00ADEB030D6B460033C7F8A9
:10150000C030D7F8C8301A46D7F8D010D7F8C00086
:101510000AF07BF9D7F8C020D7F8C830134400226E
:101520001A70D7F8CC300133C7F8BC30D349D7F89C
:10153000BC000AF07DF9C7F8B800D7F8B820D7F892
:10154000BC30D31AC7F8B430D7F8B430591C4B1E8E
:10155000C7F8B0300A4600233A637B634FF00002BD
:101560004FF00003D7E90C563046C300284643EA43
:1015700050732846C2000A460023BA62FB624FF04D
:1015800000024FF00003D7E90A563046C300284650
:1015900043EA50732846C2000B460733DB08DB00E2
:1015A000ADEB030D6B460033C7F8AC30D7F8B43061
:1015B0001A46D7F8BC10D7F8AC000AF026F9D7F8CD
:1015C000AC20D7F8B430134400221A70D7F8B430E6
:1015D0001833C7F8A830D7F8A830591C4B1EC7F8E5
:1015E000A4300A4600233A627B624FF000024FF0BB
:1015F0000003D7E908563046C300284643EA507333
:101600002846C2000A460023BA61FB614FF000027F
:101610004FF00003D7E906563046C300284643EA98
:1016200050732846C2000B460733DB08DB00ADEBE6
:10163000030D6B460033C7F8A0300023C7F89C3079
:10164000D7F89C30D7F8A020134407F1700103228B
:1016500018460AF037F9D7F89C300333C7F89C30A6
:10166000D7F89C30D7F8A020134407F1680107226F
:1016700018460AF027F9D7F89C300733C7F89C3092
:10168000D7F89C30D7F8A020134407F16001072257
:1016900018460AF017F9D7F89C300733C7F89C3082
:1016A000D7F89C30D7F8A02013440722D7F8C010F1
:1016B00018460AF007F9D7F89C300733C7F89C3072
:1016C000D7F89C30D7F8A0201344D7F8B420D7F827
:1016D000AC1018460AF0F6F8D7F89C20D7F8B430CA
:1016E0001344C7F89C30D7F8A020D7F8A83013448B
:1016F00000221A706248FEF7D5FF0023C7F8303188
:101700000EE0D7F8A020D7F8303113441B781946E3
:101710005C48FEF7C7FFD7F830310133C7F83031E6
:10172000D7F83021D7F8A8309A42EADB5648FEF7BE
:10173000B9FFD7F8B430DBB21946D7F8A000FFF7ED
:101740005FF896215148FFF778F90346504A136035
:101750004F4B1B681A4600214E480AF07FF80023C1
:10176000C7F82C310FE0494AD7F82C3113441978C7
:10177000484AD7F82C3113440A461A70D7F82C314E
:101780000133C7F82C31424B1B68D7F82C219A4201
:10179000E9DB3422002140480AF060F8962200215B
:1017A0003A480AF05BF83D48FEF7B6FF384B1B6835
:1017B000DBB21846FFF7AEFB40F6B8314FF4966047
:1017C000FFF7D2FB324B1B68DBB219463148FFF7FB
:1017D000E9FB3348FEF766FF32493348FEF762FF04
:1017E000324B5B6819463248FEF75CFF2F4B9B6813
:1017F00019463048FEF756FF2C4B5B7B19462E48A6
:10180000FEF750FF2D4B1B7819462D48FEF74AFF77
:101810002A4B1B7A19462B48FEF744FF274B5B885F
:1018200019462948FEF73EFF244B1B7919462748E5
:10183000FEF738FF214BDB7919462548FEF732FFCA
:101840002448FEF72FFF174808F08CFD01210120E6
:1018500009F0D0F90E4B1B68DBB2002219460D4887
:1018600008F042FAA54684E26B461E460023C7F8FC
:1018700028312723C7F8243144E000BFC0C2000844
:10188000C4C20008F0C20008F8C2000854040020D6
:10189000EC030020F00300201C03002020A107001F
:1018A000FCC2000818D0111A34C30008EC02002052
:1018B000D4C10008E4C1000800C20008D80200201A
:1018C0001CC2000830C2000848C2000860C20008FC
:1018D00078C200085CC30008D14AD7F82431134409
:1018E000197807F15002D7F828311A440B461370C3
:1018F000D7F828310133C7F82831D7F8243101331C
:10190000C7F82431D7F82431332BE5DD07F1500334
:101910000D211846FFF7F0F8C7F89800D7F898306F
:10192000C7F820310023C7F81C3112E007F150023C
:10193000D7F81C3113441B782D2B05D1D7F8203153
:10194000013BC7F8203100BFD7F81C310133C7F87D
:101950001C31D7F81C21D7F898309A42E6DBD7F82B
:1019600020114B1EC7F894300A46002314461D462A
:101970004FF000024FF00003EB0043EA5473E20023
:101980000A4600233A617B614FF000024FF00003EA
:10199000D7E904452846C300204643EA5073204651
:1019A000C2000B460733DB08DB00ADEB030D6B46D3
:1019B0000033C7F890300023C7F818310023C7F868
:1019C000143122E007F15002D7F8143113441B7888
:1019D0002D2B14D007F15002D7F8143113441B7883
:1019E0005B00D9B2D7F89020D7F8183113440A46D3
:1019F0001A70D7F818310133C7F8183100E000BF6A
:101A0000D7F814310133C7F81431D7F81421D7F8B7
:101A100098309A42D6DB0023C7F810310FE0804A95
:101A2000D7F81031134419787E4AD7F8103113448F
:101A30000A461A70D7F810310133C7F81031D7F8B9
:101A40001031252BEBD92623C7F88C30D7F88C1012
:101A50004B1EC7F888300A460023BA60FB604FF07F
:101A600000024FF00003D7E902452846C300204694
:101A700043EA50732046C2000A4600233A607B6066
:101A80004FF000024FF00003D7E900452846C3009D
:101A9000204643EA50732046C2000B460733DB085A
:101AA000DB00ADEB030D6B460033C7F88430002339
:101AB000C7F80C310023C7F8083118E0594AD7F8A5
:101AC000083113441B78202B0CD0D7F80C315A1C4A
:101AD000C7F80C215349D7F808210A441178D7F8E0
:101AE0008420D154D7F808310133C7F80831D7F82A
:101AF0000821D7F88C309A42E0DBD7F80C31DA0FA6
:101B000013445B10C7F88030D7F88040631EFB6732
:101B10002246002392469B464FF000024FF00003FE
:101B20004FEACB0343EA5A734FEACA022246002324
:101B3000904699464FF000024FF000034FEAC90368
:101B400043EA58734FEAC80223460733DB08DB0039
:101B5000ADEB030D6B460033BB670023C7F80431C0
:101B60002CE0D7F804315B00D7F88420D35C18460A
:101B7000FFF735F9034687F87730D7F804315B0073
:101B80000133D7F88420D35C1846FFF728F90346C1
:101B900087F8763097F877301B015AB297F976308C
:101BA00013435BB2D9B2BA6FD7F8043113440A4673
:101BB0001A70D7F804310133C7F80431D7F804217B
:101BC000D7F880309A42CCDB17491848FEF76AFDF7
:101BD000174B1B789C4240F0A0800023C7F80031CF
:101BE0000FE0BA6FD7F80031134419780E4AD7F8CE
:101BF000003113440A461A70D7F800310133C7F890
:101C000000310B4B1B781A46D7F800319342E8DBC2
:101C10000023C7F8FC300023C7F8F83028E000BFE5
:101C20001C030020500300207803002088C3000814
:101C300002000020524AD7F8F83013441978514A6C
:101C4000D7F8FC3013440A461A704E4AD7F8FC30D5
:101C500013441B7819464C48FEF724FDD7F8FC3096
:101C60000133C7F8FC30D7F8F8300133C7F8F83043
:101C7000464B1B781A46D7F8F8309342DADB4448D3
:101C8000FEF710FD0023C7F8F4301EE0D7F89020CF
:101C9000D7F8F430134419783A4AD7F8FC30134493
:101CA0000A461A70374AD7F8FC3013441B78194695
:101CB0003548FEF7F7FCD7F8FC300133C7F8FC30A5
:101CC000D7F8F4300133C7F8F430D7F8F420D7F858
:101CD00020319A42DADB2E48FEF7E4FCD7F8FC30DC
:101CE000132B16DCD7F8FC30C7F8F0300AE0254A91
:101CF000D7F8F030134440221A70D7F8F03001338F
:101D0000C7F8F030D7F8F030122BF0DD1D4B612210
:101D1000DA74204B01221A6029E019491E48FEF7A7
:101D2000C1FC0023C7F8EC300DE0154AD7F8EC30C1
:101D300013441B7819461448FEF7B4FCD7F8EC306E
:101D40000133C7F8EC30114B1B781A46D7F8EC304A
:101D50009342EADB1148FEF7A5FC0C4B1B781A46B0
:101D60000021074809F07AFD0A4B00221A60B546A7
:101D7000FFE700BF07F5A677BD46BDE8F08F00BFBF
:101D80007803002008030020F0C2000802000020B1
:101D9000F8C2000858050020ACC30008C8C30008FA
:101DA00080B584B002AF01F0A9F800F091F9FFF717
:101DB00057F8FEF7E9FD00F037FF00F0C3FD09F02A
:101DC00058F900F0E5FE984803F04AFF974807F0FD
:101DD00007FF0023002240F20F2140F20F2008F0FD
:101DE00065FA9348FEF75EFC9248FEF75BFC92486A
:101DF000FEF758FC914A92499248FEF753FC9248EC
:101E0000FEF750FC0E2300930123002207218F4888
:101E1000FEF748FC8E48FEF745FC8E48FEF742FC74
:101E20008D48FEF73FFC8D4B1B781846FFF772F884
:101E300042F6E0614FF49650FFF796F8874B1B7817
:101E400019468748FFF7AEF88648FEF72BFC7C4919
:101E50008548FEF727FC854B5B6819468448FEF7EA
:101E600021FC824B9B6819468248FEF71BFC7F4B86
:101E70005B7B19468048FEF715FC804B1B781946A2
:101E80007F48FEF70FFC7D4B1B7A19467D48FEF715
:101E900009FC7A4B5B8819467B48FEF703FC774BBD
:101EA0001B7919467948FEF7FDFB744BDB7919461F
:101EB0007748FEF7F7FB7748FEF7F4FB604808F039
:101EC00051FA0021012008F095FE6FF07F4008F0E4
:101ED00075F8714B1B789BB21A467049704804F034
:101EE00083FB09F0CEF86F48FEF716FC6E4B1B68BB
:101EF000002B00F090806D4B1B7819466C48FEF764
:101F000067FB64216B48FEF7CEFD03466A4A136007
:101F100000237B600BE0674A7B6813441978674AAB
:101F20007B6813440A461A707B6801337B60624BFE
:101F30001B687A689A42EEDB614B1B781A460021D7
:101F4000604809F08BFC594B1B781A460021584811
:101F500009F084FC64220021564809F07FFC564BAE
:101F60001B68DBB21846FEF7D5FF40F6B8314FF4D8
:101F70009660FEF7F9FF504B1B68DBB219464F48DD
:101F8000FFF710F85048FEF78DFB2C494F48FEF73D
:101F900089FB364B5B6819463548FEF783FB334BAC
:101FA0009B6819463348FEF77DFB304B5B7B194637
:101FB0003148FEF777FB314B1B7819463048FEF766
:101FC00071FB2E4B1B7A19462E48FEF76BFB2B4BF1
:101FD0005B8819462C48FEF765FB284B1B79194690
:101FE0002A48FEF75FFB254BDB7919462848FEF7A8
:101FF00059FB2848FEF756FB104808F0B3F90121B9
:10200000012008F0F7FD2C4B1B68DBB200221946BB
:102010002A4807F069FE204B1B789BB21A461F49DD
:102020001F4804F0E1FA5CE77805002091210008E0
:10203000CCC3000808C400083CC400086859F21961
:1020400018D0111A58C4000898C40008C0C4000869
:1020500014C500085CC5000880C500080300002006
:10206000EC04002080C10008ACC10008EC02002094
:10207000D4C10008E4C1000800C20008D802002052
:102080001CC2000830C2000848C2000860C2000834
:1020900078C200088CC20008010000201C03002048
:1020A0005C06002020A10700580500200000002049
:1020B0000803002088030020EC030020F003002028
:1020C0000200002078030020ACC50008D8C5000835
:1020D00080B59AB000AF07F12003482200211846CE
:1020E00009F0BCFB3B1D00221A605A609A60DA605E
:1020F0001A615A619A61254B1B6823F4C063234A15
:1021000043F400731360214B1B6803F4C0633B600E
:102110003B6801233B624FF404137B620023BB62E4
:102120000223FB6403233B6510237B650623BB6509
:102130004FF40033FB654FF000537B664FF00073A4
:102140003B6607F12003184602F01CF80346002BFB
:1021500001D000F0D1FA4F237B600323BB60002342
:10216000FB6000233B6100237B610023FB613B1D7F
:102170000221184602F088FB0346002B01D000F034
:10218000BBFA00BF6837BD4680BD00BF00040058E1
:102190002DE9F04FC3B000AF0346FB84FB8C012B4D
:1021A00040F08780994B00221A60994B1B681946B2
:1021B0009848FEF777FA0023C7F8FC300DE0964AFE
:1021C000D7F8FC3013441B7819469448FEF76AFA96
:1021D000D7F8FC300133C7F8FC308D4B1B68D7F8BB
:1021E000FC209A42EBDB8E48FEF75CFA6422002169
:1021F000894809F033FB8B4B1B781846FEF78AFEA3
:1022000042F6E0614FF49650FEF7AEFE854B1B7828
:1022100019468548FEF7C6FE8448FEF743FA84490E
:102220008448FEF73FFA844B5B6819468348FEF703
:1022300039FA814B9B6819468148FEF733FA7E4B89
:102240005B7B19467F48FEF72DFA7F4B1B781946BA
:102250007E48FEF727FA7C4B1B7A19467C48FEF72E
:1022600021FA794B5B8819467A48FEF71BFA764BC0
:102270001B7919467848FEF715FA734BDB79194636
:102280007648FEF70FFA7648FEF70CFA684808F031
:1022900069F80021012008F0ADFC6FF07F4007F0E5
:1022A0008DFE704B1B789BB21A466F496F4804F045
:1022B0009BF9FB8C022B40F00182544B00221A60E8
:1022C00069220021584809F0C9FA6922554956483F
:1022D00007F0E8FC08F007FB03461A46644B1A6057
:1022E000002387F8EF304F4B1B7819464E48FEF716
:1022F000DAFB034687F8EF306B461E4697F8EF503F
:102300002B46013BC7F8E830EBB2002298469146D5
:102310004FF000024FF000034FEAC90343EA58733D
:102320004FEAC802EBB20022BB61FA614FF0000233
:102330004FF00003D7E906894946CB00444643EAFB
:1023400054734146CA002B460733DB08DB00ADEB74
:10235000030D6B460033C7F8E4300023C7F804319F
:1023600010E0314AD7F8043113441978D7F8E42043
:10237000D7F8043113440A461A70D7F804310133F0
:10238000C7F8043197F8EF30D7F804219A42E8DB18
:1023900097F8EF30043B87F8E33097F8E3402346A3
:1023A000013BC7F8DC30E3B200223B617A614FF0B9
:1023B00000024FF00003D7E904894946CB00C44628
:1023C00043EA5C734146CA00E3B20022BB60FA6094
:1023D0004FF000024FF00003D7E902894946CB00D5
:1023E000C44643EA5C734146CA0023460733DB0810
:1023F000DB00ADEB030D6B460033C7F8D83000238C
:10240000C7F800310123C7F8F8304AE0580500202A
:10241000EC03002000C60008F0030020F0C2000812
:10242000C8C3000803000020EC04002080C100089D
:1024300018D0111AACC10008EC020020D4C1000869
:10244000E4C1000800C20008D80200201CC2000835
:1024500030C2000848C2000860C2000878C2000804
:102460008CC20008010000201C0300205C06002034
:102470005C050020D7F8E420D7F8F8301344197829
:10248000D7F8D820D7F8003113440A461A70D7F885
:1024900000310133C7F80031D7F8F8300133C7F8FD
:1024A000F83097F8E330D7F8F8209A42E2DD0023BD
:1024B000A7F8D63097F8E3301946D7F8D800FEF7DA
:1024C0007DFA0346A7F8D630B7F8D6301B0A9BB280
:1024D000DBB287F8C430B7F8D630DBB287F8C53046
:1024E00097F8EF30033BD7F8E420D35C87F8D5307A
:1024F00097F8EF30023BD7F8E420D35C87F8D4306C
:1025000097F8C43097F8D5209A4240F0888097F821
:10251000C53097F8D4209A4240F081806B461D4622
:1025200097F8E32007F12C031946D7F8D800FEF7F7
:10253000C7FBC7F8D000644B1B681A46D7F8D01009
:102540006248FEF7AFF8D7F8D040631EC7F8CC302A
:10255000224600233A607B604FF000024FF00003F8
:10256000D7E900894946CB00C44643EA5C7341463B
:10257000CA002246002392469B464FF000024FF0CD
:1025800000034FEACB0343EA5A734FEACA022346D9
:102590000733DB08DB00ADEB030D6B460033C7F8F8
:1025A000C8300023C7F8F4301BE007F12C02D7F83D
:1025B000F43013441978D7F8C820D7F8F43013440E
:1025C0000A461A70D7F8C820D7F8F43013441B789D
:1025D00019463F48FEF766F8D7F8F4300133C7F8DC
:1025E000F430D7F8F420D7F8D0309A42DDDBA2B22D
:1025F0004FF4FA63D7F8C810364803F06FFF364837
:10260000FEF750F83548FEF74DF8D7F8D0301A46A7
:102610000021D7F8C80009F021F9AD463AE0304B67
:102620001B6801332E4A13602D4B1B6819462D4839
:10263000FEF738F80023C7F8F0300EE0D7F8E420B2
:10264000D7F8F03013441B7819462148FEF72AF8D2
:10265000D7F8F0300133C7F8F0302A46D7F8F03019
:102660009A42EBD8AAB24FF4FA63D7F8E4101948AB
:1026700003F034FF1848FEF715F81848FEF712F873
:10268000194B00221A7023461A460021D7F8D800A9
:1026900009F0E4F8B546154807F064FE0021012072
:1026A00008F0A8FA6FF07F4007F088FC104B1B7809
:1026B0009BB21A460F49074803F096FF00BF07F583
:1026C0008677BD46BDE8F08F5C05002034C6000863
:1026D000F0C200085C060020C8C3000870C60008ED
:1026E0006005002080C60008EC04002018D0111AF4
:1026F000010000201C03002080B400AF72B600BFB0
:10270000FEE780B400AF00BFBD4680BC704780B418
:1027100000AFFEE780B400AFFEE780B400AFFEE795
:1027200080B400AFFEE780B400AFFEE780B400AF36
:1027300000BFBD4680BC704780B400AF00BFBD463F
:1027400080BC704780B400AF00BFBD4680BC7047FE
:1027500080B500AF00F02CFC00BF80BD80B500AF9D
:10276000024800F027FF00BF80BD00BFF006002038
:1027700080B500AF024800F01DFF00BF80BD00BF64
:102780005007002080B500AF024803F0ADFA00BF4B
:1027900080BD00BF7805002080B500AF024803F07F
:1027A0006FFF00BF80BD00BFC805002080B500AF2F
:1027B000024803F065FF00BF80BD00BF5C0600203B
:1027C00080B500AF024803F055F800BF80BD00BFE0
:1027D0006405002080B485B000AF78604FF0B0434E
:1027E0005A6E4FF0B0417B6813434B664FF0B043D5
:1027F0005A6E7B681340FB60FB6800BF1437BD4610
:1028000080BC704780B500AF064B10221A600548A7
:1028100002F0AEFD0346002B01D0FFF76DFF00BFB5
:1028200080BD00BF6405002080B582B000AF786035
:102830000120FFF7CFFF00220021322000F0A1FC91
:10284000322000F0B8FC00BF0837BD4680BD80B420
:1028500000AF00BFBD4680BC7047000080B582B0AD
:1028600000AF00237B60064B1B78002B02D000F0EA
:1028700010F978607B6818460837BD4680BD00BFF8
:102880007005002080B582B000AF78607B68184684
:1028900000F02DF900BF0837BD4680BD80B586B079
:1028A00000AF7860144A154BD31A7B617B693B619A
:1028B000134B1B68002B02D1114B124A1A60104BAC
:1028C0001A687B6813443A699A4207D208F0CEFF2F
:1028D00003460C221A604FF0FF3309E0084B1B68D7
:1028E000FB60074B1A687B681344054A1360FB685A
:1028F00018461837BD4680BD0000012000040000C6
:1029000074050020C00A002080B400AF00BFBD469F
:1029100080BC704780B485B000AF78604FF0B043A2
:102920009A6D4FF0B0417B6813438B654FF0B04315
:102930009A6D7B681340FB60FB6800BF1437BD468F
:1029400080BC704780B588B000AF07F1100300224B
:102950001A605A609A60DA603B1D00221A605A6061
:102960009A601D4B4FF080421A601B4B2F225A6019
:10297000194B00229A60184B184ADA60164B002255
:102980001A61154B00229A61134803F011F90346AE
:10299000002B01D0FFF7B0FE4FF480533B6107F1ED
:1029A000100319460C4803F0BEFA0346002B01D071
:1029B000FFF7A2FE00237B600023FB603B1D19464E
:1029C000054803F0A1FC0346002B01D0FFF794FE5D
:1029D00000BF2037BD4680BD7805002040420F0073
:1029E00080B582B000AF78607B681B68B3F1804F20
:1029F0000AD10120FFF78EFF002200211B2000F0EA
:102A0000C0FB1B2000F0D7FB00BF0837BD4680BDD0
:102A100080B483B000AF0023FB71FB7918460C37FC
:102A2000BD4680BC704780B485B000AF786000239D
:102A3000FB73FB7B18461437BD4680BC704780B4DF
:102A400083B000AF0023FB71FB7918460C37BD46FD
:102A500080BC704780B400AF024B1B681846BD466F
:102A600080BC7047C405002080B400AF024B1B68D7
:102A70001846BD4680BC7047C405002080B483B0B2
:102A800000AF00237B607B6818460C37BD4680BCD6
:102A9000704780B483B000AF00237B607B6818462A
:102AA0000C37BD4680BC704780B483B000AF0023B4
:102AB0007B607B6818460C37BD4680BC704780B48D
:102AC00085B000AF78600023FB60FB6818461437C0
:102AD000BD4680BC704780B485B000AF78600023ED
:102AE000FB60FB6818461437BD4680BC704780B455
:102AF00083B000AF786000BF0C37BD4680BC704724
:102B000080B485B000AF78604FF0B043DA6C4FF01E
:102B1000B0417B681343CB644FF0B043DA6C7B6801
:102B20001340FB60FB6800BF1437BD4680BC704794
:102B300080B485B000AF78604FF0B0439A6D4FF02D
:102B4000B0417B6813438B654FF0B0439A6D7B684F
:102B50001340FB60FB6800BF1437BD4680BC704764
:102B600080B485B000AF78604FF0B0431A6E4FF07C
:102B7000B0417B6813430B664FF0B0431A6E7B681D
:102B80001340FB60FB6800BF1437BD4680BC704734
:102B900080B500AF224B234A1A60214B4FF4E1323B
:102BA0005A601F4B00229A601D4B0022DA601C4BBA
:102BB00000221A611A4B0C225A61194B00229A61A9
:102BC000174B0022DA61164B00221A62144B0022C6
:102BD0005A62134B00229A62114803F02FFC0346FD
:102BE000002B01D0FFF788FD00210D4804F092FF73
:102BF0000346002B01D0FFF77FFD0021084804F0B9
:102C0000C7FF0346002B01D0FFF776FD044804F010
:102C100049FF0346002B01D0FFF76EFD00BF80BDCA
:102C2000C80500200038014080B500AF224B234A80
:102C30001A60214B4FF4E1325A601F4B00229A6018
:102C40001D4B0022DA601C4B00221A611A4B0C2229
:102C50005A61194B00229A61174B0022DA61164B18
:102C600000221A62144B00225A62134B00229A620D
:102C7000114803F0E3FB0346002B01D0FFF73CFDB6
:102C800000210D4804F046FF0346002B01D0FFF75A
:102C900033FD0021084804F07BFF0346002B01D0E0
:102CA000FFF72AFD044804F0FDFE0346002B01D087
:102CB000FFF722FD00BF80BD5C06002000440040FD
:102CC00080B596B000AF786007F1440300221A6027
:102CD0005A609A60DA601A6107F10C033822002109
:102CE000184608F0BBFD7B681B68694A934230D1E7
:102CF0000123FB604FF440333B6107F10C0318469E
:102D000002F082F90346002B01D0FFF7F5FC4FF4E7
:102D10008040FFF725FF0120FFF7F2FE4FF4C0636C
:102D20007B640223BB640023FB6400233B65072311
:102D30007B6507F1440319464FF0904000F0D8FD41
:102D400000220021242000F01CFA242000F033FA95
:102D500099E07B681B684F4A934240F094800223BD
:102D6000FB604FF440237B6107F10C03184602F02F
:102D70004BF90346002B01D0FFF7BEFC4FF40030A7
:102D8000FFF7D6FE0120FFF7BBFE0C237B64022376
:102D9000BB640023FB6400233B6507237B6507F1CD
:102DA000440319464FF0904000F0A2FD3A4B3B4AD5
:102DB0001A60394B13225A60374B00229A60364B07
:102DC0000022DA60344B80221A61334B00225A61B0
:102DD000314B00229A61304B0022DA612E4B0022E7
:102DE0001A622D4800F002FA0346002B01D0FFF7CB
:102DF00083FC1021284800F0A3FC0346002B01D0DF
:102E0000FFF77AFC7B68244AC3F88020224A7B685B
:102E10009362234B234A1A60214B14225A60204BA1
:102E200010229A601E4B0022DA601D4B80221A612C
:102E30001B4B00225A611A4B00229A61184B002248
:102E4000DA61174B00221A62154800F0CFF90346E9
:102E5000002B01D0FFF750FC1021114800F070FC4E
:102E60000346002B01D0FFF747FC7B680C4ADA676A
:102E70000B4A7B68936200220021252000F081F933
:102E8000252000F098F900BF5837BD4680BD00BF2F
:102E90000038014000440040F006002008000240D5
:102EA000500700201C0002400D488546FFF72CFD0E
:102EB0000C480D490D4A002302E0D458C450043395
:102EC000C4188C42F9D30A4A0A4C002301E013606B
:102ED0000432A242FBD308F0CFFCFEF761FFFEE70D
:102EE00000000120000000206000002074C90008DC
:102EF00060000020BC0A0020FEE7000080B582B020
:102F000000AF0023FB71032000F030F901F09EFEBA
:102F10000346094A1360002000F010F80346002B16
:102F200002D00123FB7101E0FFF7EBFBFB791846B0
:102F30000837BD4680BD00BF0400002080B584B0C6
:102F400000AF78600023FB73174B1B78002B24D055
:102F500001F07CFE0246144B1B7819464FF47A733D
:102F6000B3FBF1F3B2FBF3F3184600F032F903467A
:102F7000002B0FD17B680F2B09D8002279684FF006
:102F8000FF3000F0FEF8094A7B68136007E0012378
:102F9000FB7304E00123FB7301E00123FB73FB7B64
:102FA00018461037BD4680BD0C00002008000020E8
:102FB00080B400AF054B1B781A46054B1B681344C1
:102FC000034A136000BFBD4680BC70470C00002060
:102FD000B007002080B485B000AF78607B6803F054
:102FE0000703FB600C4BDB68BB60BA684FF6FF035E
:102FF0001340BB60FB681A02BB68134343F0BF6316
:1030000043F40033BB60044ABB68D36000BF14378D
:10301000BD4680BC704700BF00ED00E080B400AF4B
:10302000044BDB681B0A03F007031846BD4680BC4F
:10303000704700BF00ED00E080B483B000AF0346EE
:10304000FB7197F90730002B0BDBFB7903F01F02B4
:10305000064997F907305B09012000FA02F241F8AE
:10306000232000BF0C37BD4680BC704700E100E064
:1030700080B483B000AF03463960FB7197F9073025
:10308000002B0ADB3B68DAB20C4997F907301201D2
:10309000D2B20B4483F800230AE03B68DAB2084955
:1030A000FB7903F00F03043B1201D2B20B441A76F2
:1030B00000BF0C37BD4680BC704700BF00E100E098
:1030C00000ED00E080B489B000AFF860B9607A60CC
:1030D000FB6803F00703FB61FB69C3F10703042BE3
:1030E00028BF0423BB61FB690433062B02D9FB69AB
:1030F000033B00E000237B614FF0FF32BB6902FA23
:1031000003F3DA43BB681A407B699A404FF0FF3102
:103110007B6901FA03F3D9437B680B4013431846DC
:103120002437BD4680BC704780B582B000AF786060
:103130007B68013BB3F1807F01D301230FE00A4A92
:103140007B68013B53600F214FF0FF30FFF790FF8A
:10315000054B00229A60044B07221A600023184690
:103160000837BD4680BD00BF10E000E080B582B0EA
:1031700000AF78607868FFF72DFF00BF0837BD46C5
:1031800080BD80B586B000AF0346B9607A60FB733E
:10319000FFF744FF78617A68B9687869FFF792FFB2
:1031A000024697F90F3011461846FFF761FF00BF3E
:1031B0001837BD4680BD80B582B000AF0346FB71B5
:1031C00097F907301846FFF737FF00BF0837BD46AD
:1031D00080BD80B582B000AF78607868FFF7A4FF4B
:1031E000034618460837BD4680BD000080B582B052
:1031F00000AF78607B68002B01D101238EE07B68F3
:103200001B681A46474B9A420FD87B681B681A46C0
:10321000454B1344454AA2FB03231B099A007B68D4
:103220005A647B68424A1A640EE07B681B681A463F
:10323000404B13443D4AA2FB03231B099A007B68C1
:103240005A647B683C4A1A647B68022283F8252012
:103250007B681B681B687A68126823F4FF4323F0BD
:10326000700313607B681B6819687B689A687B68C9
:10327000DB681A437B681B691A437B685B691A43E6
:103280007B689B691A437B68DB691A437B681B6A0E
:103290001A437B681B680A431A60786800F0BCFA1E
:1032A0007B689B68B3F5804F02D17B6800225A602F
:1032B0007B685A687B689B6C02F07F021A607B68AF
:1032C000DB6C7A68126D5A607B685B68002B10D0EB
:1032D0007B685B68042B0CD8786800F0E5FA7B68A3
:1032E0005B6D00221A607B689B6D7A68D26D5A60B4
:1032F00008E07B6800225A657B6800229A657B683B
:103300000022DA657B680022DA637B68012283F899
:1033100025207B68002283F82420002318460837E4
:10332000BD4680BD07040240F8FFFDBFCDCCCCCC2C
:1033300000000240F8FBFDBF0004024080B586B0EB
:1033400000AFF860B9607A603B600023FB75FB68F2
:1033500093F82430012B01D1022369E0FB6801229C
:1033600083F82420FB6893F82530DBB2012B55D17C
:10337000FB68022283F82520FB680022DA63FB68E1
:103380001B681A68FB681B6822F001021A603B6820
:103390007A68B968F86800F002FAFB681B6B002BCA
:1033A00008D0FB681B681A68FB681B6842F00E02B5
:1033B0001A600FE0FB681B681A68FB681B6822F044
:1033C00004021A60FB681B681A68FB681B6842F0FD
:1033D0000A021A60FB689B6C1B6803F48033002BA5
:1033E00007D0FB689B6C1A68FB689B6C42F4807288
:1033F0001A60FB685B6D002B07D0FB685B6D1A6879
:10340000FB685B6D42F480721A60FB681B681A6887
:10341000FB681B6842F001021A6008E0FB6880222A
:10342000DA63FB68002283F824200123FB75FB7D0F
:1034300018461837BD4680BD80B483B000AF7860B1
:103440007B68002B01D101234FE07B6893F8253086
:10345000DBB2022B08D07B680422DA637B6800228F
:1034600083F82420012340E07B681B681A687B688E
:103470001B6822F00E021A607B689B6C1A687B68DE
:103480009B6C22F480721A607B681B681A687B68E8
:103490001B6822F001021A607B685B6C03F01C025F
:1034A0007B681B6C012101FA02F25A607B68DB6CBD
:1034B0007A68126D5A607B685B6D002B0CD07B685C
:1034C0005B6D1A687B685B6D22F480721A607B68A2
:1034D0009B6D7A68D26D5A607B68012283F8252043
:1034E0007B68002283F82420002318460C37BD4651
:1034F00080BC704780B584B000AF78600023FB7358
:103500007B6893F82530DBB2022B05D07B68042260
:10351000DA630123FB7347E07B681B681A687B68EA
:103520001B6822F00E021A607B681B681A687B68B1
:103530001B6822F001021A607B689B6C1A687B682A
:103540009B6C22F480721A607B685B6C03F01C0237
:103550007B681B6C012101FA02F25A607B68DB6C0C
:103560007A68126D5A607B685B6D002B0CD07B68AB
:103570005B6D1A687B685B6D22F480721A607B68F1
:103580009B6D7A68D26D5A607B68012283F8252092
:103590007B68002283F824207B689B6B002B03D080
:1035A0007B689B6B78689847FB7B18461037BD4655
:1035B00080BD000080B584B000AF78607B681B6C74
:1035C0001B68FB607B681B681B68BB607B685B6C6F
:1035D00003F01C0304229A40FB681340002B27D001
:1035E000BB6803F00403002B22D07B681B681B68B8
:1035F00003F02003002B07D17B681B681A687B68E7
:103600001B6822F004021A607B685B6C03F01C02EA
:103610007B681B6C042101FA02F25A607B681B6B09
:10362000002B00F081807B681B6B786898477BE0FB
:103630007B685B6C03F01C0302229A40FB6813401A
:10364000002B3DD0BB6803F00203002B38D07B6811
:103650001B681B6803F02003002B0BD17B681B68E1
:103660001A687B681B6822F00A021A607B680122D4
:1036700083F825207B681B681A462E4B9A4209D98D
:103680007B685B6C03F01C032B4A022101FA03F3F5
:10369000536008E07B685B6C03F01C03274A02213F
:1036A00001FA03F353607B68002283F824207B68CF
:1036B000DB6A002B38D07B68DB6A7868984733E098
:1036C0007B685B6C03F01C0308229A40FB68134084
:1036D000002B2AD0BB6803F00803002B25D07B68A1
:1036E0001B681A687B681B6822F00E021A607B68F0
:1036F0005B6C03F01C027B681B6C012101FA02F277
:103700005A607B680122DA637B68012283F82520F6
:103710007B68002283F824207B685B6B002B04D03D
:103720007B685B6B7868984700BF00BF1037BD4669
:1037300080BD00BF80000240000402400000024043
:1037400080B485B000AF786039600023FB727B687D
:10375000002B03D10123FB72FB7A1BE07B681B6803
:103760001B68FB603B6803F01003002B0DD03B6827
:1037700003F48013002B04D0FB6843F48013FB6038
:1037800003E0FB6823F48013FB607B681B68FA6826
:103790001A60FB7A18461437BD4680BC704780B467
:1037A00085B000AFF860B9607A603B60FB68DB6CA5
:1037B000FA68126D5A60FB685B6D002B04D0FB68E1
:1037C0009B6DFA68D26D5A60FB685B6C03F01C025B
:1037D000FB681B6C012101FA02F25A60FB681B684E
:1037E0003A685A60FB689B68102B08D1FB681B681D
:1037F0007A689A60FB681B68BA68DA6007E0FB6861
:103800001B68BA689A60FB681B687A68DA6000BF58
:103810001437BD4680BC704780B485B000AF786077
:103820007B681B681A461C4B9A4213D87B685B6CFA
:103830009B089B0003F1804303F502337A6893648D
:103840007B681B68DBB2083B144AA2FB03231B09FD
:10385000FB6011E07B685B6C9B089A00104B134483
:103860007A6893647B681B68DBB2083B0B4AA2FB57
:1038700003231B090733FB607B680A4ADA64FB6891
:1038800003F01F0301229A407B681A6500BF1437BA
:10389000BD4680BC704700BF07040240CDCCCCCCF5
:1038A0001C0802408008024080B485B000AF7860F8
:1038B0007B685B6803F07F03FB60FA680A4B134484
:1038C0009B001A467B685A657B68084A9A65FB68C4
:1038D000013B03F0030301229A407B68DA6500BFD5
:1038E0001437BD4680BC70473F820010400902403B
:1038F00080B487B000AF7860396000237B6140E11D
:103900003B681A6801217B6901FA03F31340FB60ED
:10391000FB68002B00F032813B685B6803F0030317
:10392000012B05D03B685B6803F00303022B30D109
:103930007B689B683B617B695B00032202FA03F3AF
:10394000DB433A6913403B613B68DA687B695B00A3
:1039500002FA03F33A6913433B617B683A699A6060
:103960007B685B683B6101227B6902FA03F3DB43FE
:103970003A6913403B613B685B681B0903F0010235
:103980007B6902FA03F33A6913433B617B683A6946
:103990005A603B685B6803F00303032B17D07B6816
:1039A000DB683B617B695B00032202FA03F3DB43C4
:1039B0003A6913403B613B689A687B695B0002FA95
:1039C00003F33A6913433B617B683A69DA603B6809
:1039D0005B6803F00303022B23D17B69DA087B6861
:1039E000083253F822303B617B6903F007039B00E8
:1039F0000F2202FA03F3DB433A6913403B613B6851
:103A00001A697B6903F007039B0002FA03F33A6922
:103A100013433B617B69DA087B680832396943F8F4
:103A200022107B681B683B617B695B00032202FA02
:103A300003F3DB433A6913403B613B685B6803F087
:103A400003027B695B0002FA03F33A6913433B61AB
:103A50007B683A691A603B685B6803F44033002B6B
:103A600000F08C804E4A7B699B08023352F8233069
:103A70003B617B6903F003039B00072202FA03F317
:103A8000DB433A6913403B617B68B3F1904F0DD043
:103A90007B68444A934207D07B68434A934201D1F2
:103AA000022304E0072302E0012300E000237A69F7
:103AB00002F00302920093403A6913433B61384994
:103AC0007B699B0802333A6941F82320374B1B6816
:103AD0003B61FB68DB433A6913403B613B685B68D1
:103AE00003F48013002B03D03A69FB6813433B6156
:103AF0002E4A3B6913602D4B5B683B61FB68DB43DF
:103B00003A6913403B613B685B6803F40013002B88
:103B100003D03A69FB6813433B61244A3B69536015
:103B2000224BD3F880303B61FB68DB433A6913409A
:103B30003B613B685B6803F48033002B03D03A6938
:103B4000FB6813433B61194A3B69C2F88030174B4D
:103B5000D3F884303B61FB68DB433A6913403B6137
:103B60003B685B6803F40033002B03D03A69FB68C1
:103B700013433B610D4A3B69C2F884307B690133D2
:103B80007B613B681A687B6922FA03F3002B7FF4A0
:103B9000B7AE00BF00BF1C37BD4680BC704700BF3A
:103BA00000000140000400480008004800080058D8
:103BB00080B483B000AF78600B467B8013467B7087
:103BC0007B78002B03D07A887B689A6102E07A8840
:103BD0007B689A6200BF0C37BD4680BC704700000E
:103BE00080B400AF044B1B68034A43F48073136036
:103BF00000BFBD4680BC70470004005880B400AFD1
:103C0000034B1B6803F4C0631846BD4680BC704775
:103C10000004005880B400AF064B1B6803F48073A7
:103C2000B3F5807F01D1012300E000231846BD4693
:103C300080BC70470004005880B400AF4FF0B04320
:103C40001B684FF0B04243F40013136000BFBD4641
:103C500080BC704780B400AF4FF0B0431B684FF09A
:103C6000B04223F40013136000BFBD4680BC704710
:103C700080B400AF4FF0B0431B6803F48013B3F57A
:103C8000801F01D1012300E000231846BD4680BCFF
:103C9000704780B400AF4FF0B0431B684FF0B042A4
:103CA00043F48033136000BFBD4680BC704780B4CE
:103CB00000AF4FF0B0431B684FF0B04223F48033A5
:103CC000136000BFBD4680BC704780B400AF4FF0AA
:103CD000B0431B6803F40033B3F5003F01D1012367
:103CE00000E000231846BD4680BC704780B400AF9A
:103CF0004FF0B0431B684FF0B04243F48073136041
:103D000000BFBD4680BC704780B400AF4FF0B043E9
:103D10001B684FF0B04223F48073136000BFBD46B0
:103D200080BC704780B400AF4FF0B0431B6803F411
:103D30008063B3F5806F01D1012300E000231846B2
:103D4000BD4680BC704780B483B000AF78604FF050
:103D5000B0435B6823F0FE427B681B064FF0B04126
:103D600013434B6000BF0C37BD4680BC704780B426
:103D700000AF4FF0B043D3F8903003F00203022BB2
:103D800001D1012300E000231846BD4680BC7047E6
:103D900080B400AF4FF0B043D3F894304FF0B0424E
:103DA00043F00103C2F8943000BFBD4680BC7047A9
:103DB00080B400AF4FF0B043D3F894304FF0B0422E
:103DC00023F00103C2F8943000BFBD4680BC7047A9
:103DD00080B400AF4FF0B043D3F8943003F0020347
:103DE000022B01D1012300E000231846BD4680BC10
:103DF000704780B400AF4FF0B0431B684FF0B04243
:103E000043F00103136000BFBD4680BC704780B41F
:103E100000AF4FF0B0431B684FF0B04223F00103F6
:103E2000136000BFBD4680BC704780B400AF4FF048
:103E3000B0431B6803F00203022B01D1012300E011
:103E400000231846BD4680BC704780B400AF4FF0D9
:103E5000B0431B6803F00803082B01D1012300E0E5
:103E600000231846BD4680BC704780B400AF4FF0B9
:103E7000B0431B6803F0F0031846BD4680BC704792
:103E800080B400AF4FF0B043D3F8943003F47063C4
:103E90001846BD4680BC704780B483B000AF7860E0
:103EA0004FF0B0435B6823F47F427B681B024FF006
:103EB000B04113434B6000BF0C37BD4680BC704718
:103EC00080B483B000AF78604FF0B0439B6823F0BC
:103ED00003024FF0B0417B6813438B6000BF0C3787
:103EE000BD4680BC704780B400AF4FF0B0439B68C4
:103EF00003F00C031846BD4680BC704780B483B005
:103F000000AF78604FF0B0439B6823F0F0024FF0B1
:103F1000B0417B6813438B6000BF0C37BD4680BC4B
:103F2000704780B483B000AF78604FF0B043D3F8EF
:103F3000083123F0F0024FF0B0417B681343C1F821
:103F4000083100BF0C37BD4680BC704780B483B0D9
:103F500000AF78604FF0B043D3F8083123F00F0280
:103F60007B681B094FF0B0411343C1F8083100BF13
:103F70000C37BD4680BC704780B483B000AF78601A
:103F80004FF0B0439B6823F4E0624FF0B0417B6890
:103F900013438B6000BF0C37BD4680BC704780B4B4
:103FA00083B000AF78604FF0B0439B6823F4605259
:103FB0004FF0B0417B6813438B6000BF0C37BD46A8
:103FC00080BC704780B400AF4FF0B0439B6803F0F3
:103FD000F0031846BD4680BC704780B400AF4FF078
:103FE000B043D3F808311B0103F0F0031846BD4677
:103FF00080BC704780B400AF4FF0B0439B6803F4BF
:10400000E0631846BD4680BC704780B400AF4FF0F7
:10401000B0439B6803F460531846BD4680BC7047AC
:1040200080B400AF4FF0B0431B684FF0B04243F094
:104030008073136000BFBD4680BC704780B400AF82
:104040004FF0B0431B684FF0B04223F08073136011
:1040500000BFBD4680BC704780B400AF4FF0B04396
:104060001B6803F00073B3F1007F01D1012300E06E
:1040700000231846BD4680BC704780B400AF4FF0A7
:10408000B043DB681B0A03F07F031846BD4680BCC3
:10409000704780B400AF4FF0B043DB6803F060437B
:1040A0001846BD4680BC704780B400AF4FF0B043A7
:1040B000DB6803F070031846BD4680BC704780B4CF
:1040C00000AF4FF0B043DB6803F003031846BD4672
:1040D00080BC704780B400AF4FF0B0439B6803F4DE
:1040E0008033B3F5803F01D1012300E0002318465F
:1040F000BD4680BC704780B400AF4FF0B043D3F8EA
:10410000083103F40033B3F5003F01D1012300E08F
:1041100000231846BD4680BC704780B400AF4FF006
:10412000B043D3F8083103F48033B3F5803F01D1B5
:10413000012300E000231846BD4680BC704780B4D0
:1041400000AF4FF0B0439B6803F40033B3F5003F7A
:1041500001D1012300E000231846BD4680BC704712
:1041600080B400AF4FF0B0439B6803F48023B3F5F5
:10417000802F01D1012300E000231846BD4680BCFA
:104180007047000080B588B000AF78607B68002B76
:1041900001D101236FE3FFF7A6FEF861FFF78FFF60
:1041A000B8617B681B6803F02003002B00F0C4801B
:1041B000FB69002B05D0FB690C2B76D1BB69012B69
:1041C00073D17B681B6A002B01D1012353E37B6809
:1041D0009A6A4FF0B0431B6803F00803002B05D028
:1041E0004FF0B0431B6803F0F00306E04FF0B0431C
:1041F000D3F894301B0903F0F003934222D27B687A
:104200009B6A184600F05AFD0346002B01D001239B
:1042100031E34FF0B0431B684FF0B04243F0080366
:1042200013604FF0B0431B6823F0F0027B689B6A79
:104230004FF0B04113430B607B685B6A1846FFF791
:104240002BFE21E04FF0B0431B684FF0B04243F02B
:10425000080313604FF0B0431B6823F0F0027B6843
:104260009B6A4FF0B04113430B607B685B6A184652
:10427000FFF712FE7B689B6A184600F01FFD03469D
:10428000002B01D00123F6E200F0E0FC0346A74A30
:104290001360A74B1B681846FEF750FE0346FB74DD
:1042A000FB7C002B47D0FB7CE5E27B681B6A002B84
:1042B0002CD0FFF79EFDFEF7D1FA786108E0FEF7FB
:1042C000CDFA02467B69D31A022B01D90323D2E22D
:1042D000FFF7ABFD0346002BF1D04FF0B0431B6856
:1042E0004FF0B04243F0080313604FF0B0431B6837
:1042F00023F0F0027B689B6A4FF0B04113430B60E0
:104300007B685B6A1846FFF7C7FD15E0FFF77FFD86
:10431000FEF7A4FA786108E0FEF7A0FA02467B698E
:10432000D31A022B01D90323A5E2FFF77EFD034632
:10433000002BF1D100E000BF7B681B6803F0010394
:10434000002B58D0FB69082B05D0FB690C2B08D13A
:10435000BB69032B05D17B685B68002B4BD1012324
:1043600089E24FF0B0431B6823F480127B689B689E
:104370004FF0B04113430B607B685B68B3F5803F3F
:1043800002D1FFF786FC0DE07B685B68B3F5041F84
:1043900004D1FFF751FCFFF77CFC03E0FFF787FC3B
:1043A000FFF758FC7B685B68002B12D0FEF756FACB
:1043B000786108E0FEF752FA02467B69D31A642B53
:1043C00001D9032357E2FFF780FC0346002BF1D00D
:1043D00011E0FEF743FA786108E0FEF73FFA024683
:1043E0007B69D31A642B01D9032344E2FFF76DFCE8
:1043F0000346002BF1D17B681B6803F00203002BFE
:1044000046D0FB69042B05D0FB690C2B0ED1BB6990
:10441000022B0BD17B681B69002B01D101232AE2FF
:104420007B685B691846FFF78EFC31E07B681B698F
:10443000002B19D0FFF75AFCFEF710FA786108E05C
:10444000FEF70CFA02467B69D31A022B01D903232B
:1044500011E2FFF767FC0346002BF1D07B685B6934
:104460001846FFF770FC13E0FFF74EFCFEF7F6F975
:10447000786108E0FEF7F2F902467B69D31A022B55
:1044800001D90323F7E1FFF74DFC0346002BF1D1DF
:104490007B681B6803F00803002B6ED07B689B6968
:1044A000002B56D04FF0B043D3F89430FB607B68BC
:1044B000DA69FB6803F010039A4231D0FB6803F01D
:1044C0000203002B06D0FB6803F00103002B01D18F
:1044D0000123D0E1FB6803F00103002B13D0FFF7A9
:1044E00067FCFEF7BBF9786108E0FEF7B7F9024612
:1044F0007B69D31A112B01D90323BCE1FFF768FCB8
:104500000346002BF1D14FF0B043D3F8943023F0A1
:1045100010027B68DB694FF0B0411343C1F894305F
:10452000FFF736FCFEF79AF978610CE004000020F2
:1045300008000020FEF792F902467B69D31A112B7E
:1045400001D9032397E1FFF743FC0346002BF1D089
:1045500013E0FFF72DFCFEF781F9786108E0FEF724
:104560007DF902467B69D31A112B01D9032382E11D
:10457000FFF72EFC0346002BF1D17B681B6803F08C
:104580000403002B00F0D880FFF744FB0346002B08
:1045900013D1FFF725FBFEF761F9786108E0FEF71C
:1045A0005DF902467B69D31A022B01D9032362E12C
:1045B000FFF730FB0346002BF1D07B68DB68002B54
:1045C0007BD07B68DB68852B03D07B68DB68052BA1
:1045D00009D14FF0B043D3F890304FF0B04243F0E0
:1045E0000403C2F89030FEF739F978614FF0B04318
:1045F000D3F890304FF0B04243F00103C2F890304E
:104600000AE0FEF72BF902467B69D31A41F28832A1
:10461000934201D903232EE1FFF7A9FB0346002BA8
:10462000EFD07B68DB68812B03D07B68DB68852B50
:1046300021D1FEF713F978614FF0B043D3F89030F1
:104640004FF0B04243F08003C2F890300AE0FEF72A
:1046500005F902467B69D31A41F28832934201D9A7
:10466000032308E14FF0B043D3F8903003F4006324
:10467000002BECD060E0FEF7F1F878614FF0B0432A
:10468000D3F890304FF0B04223F08003C2F890305E
:104690000AE0FEF7E3F802467B69D31A41F288325A
:1046A000934201D90323E6E04FF0B043D3F89030B2
:1046B00003F40063002BECD13EE0FEF7CFF8786105
:1046C0004FF0B043D3F890304FF0B04223F0800366
:1046D000C2F890300AE0FEF7C1F802467B69D31AAF
:1046E00041F28832934201D90323C4E04FF0B04332
:1046F000D3F8903003F40063002BECD1FEF7AEF852
:1047000078614FF0B043D3F890304FF0B04223F0CF
:104710000103C2F890300AE0FEF7A0F802467B6978
:10472000D31A41F28832934201D90323A3E0FFF761
:104730001EFB0346002BEFD17B68DB6A002B00F0E9
:104740009980FB690C2B6CD07B68DB6A022B4BD108
:10475000FFF774FCFEF782F8786108E0FEF77EF858
:1047600002467B69D31A0A2B01D9032383E0FFF7A2
:1047700073FC0346002BF1D14FF0B043DA68404B95
:1047800013407A68116B7A68526B11437A68926BA6
:10479000120211437A68D26B11437A68126C11438A
:1047A0007A68526C0A434FF0B0411343CB60FFF775
:1047B00037FC4FF0B043DB684FF0B04243F080531A
:1047C000D360FEF74BF8786108E0FEF747F8024641
:1047D0007B69D31A0A2B01D903234CE0FFF73CFC79
:1047E0000346002BF1D045E0FFF728FCFEF736F832
:1047F000786108E0FEF732F802467B69D31A0A2B8B
:1048000001D9032337E0FFF727FC0346002BF1D142
:104810004FF0B043DA684FF0B0411A4B1340CB6011
:1048200028E07B68DB6A012B01D1012323E04FF0F4
:10483000B043DB68BB61BB6903F003027B681B6BA1
:104840009A4215D1BB6903F070027B685B6B9A4298
:104850000ED1BB6903F4FE427B689B6B1B029A423C
:1048600006D1BB6903F060427B685B6C9A4201D061
:10487000012300E0002318462037BD4680BD00BF5D
:104880008C80C111FCFFFEEE80B584B000AF786073
:1048900039607B68002B01D101232CE1984B1B6808
:1048A00003F007033A689A421BD9954B1B6823F023
:1048B000070293493B6813430B60FDF7CFFFF86095
:1048C00008E0FDF7CBFF0246FB68D31A022B01D9A3
:1048D000032310E18A4B1B6803F007033A689A42EE
:1048E000EFD17B681B6803F00203002B16D07B68B6
:1048F0009B681846FFF702FBFDF7B0FFF86008E081
:10490000FDF7ACFF0246FB68D31A022B01D9032343
:10491000F1E0FFF7DFFB0346002BF1D07B681B685B
:1049200003F02003002B16D07B685B691846FFF765
:10493000F8FAFDF793FFF86008E0FDF78FFF0246F5
:10494000FB68D31A022B01D90323D4E0FFF7D3FB72
:104950000346002BF1D07B681B6803F04003002B5B
:1049600016D07B689B691846FFF7F0FAFDF776FFD3
:10497000F86008E0FDF772FF0246FB68D31A022BCD
:1049800001D90323B7E0FFF7C8FB0346002BF1D0A2
:104990007B681B6803F00403002B16D07B68DB6880
:1049A0001846FFF7E9FAFDF759FFF86008E0FDF750
:1049B00055FF0246FB68D31A022B01D903239AE064
:1049C000FFF7BDFB0346002BF1D07B681B6803F0AB
:1049D0000803002B17D07B681B69DB001846FFF724
:1049E000DEFAFDF73BFFF86008E0FDF737FF02460F
:1049F000FB68D31A022B01D903237CE0FFF7B0FB3D
:104A00000346002BF1D07B681B6803F00103002BE9
:104A100043D07B685B68022B06D1FFF756F903464B
:104A2000002B1ED1012366E07B685B68032B06D157
:104A3000FFF712FB0346002B13D101235BE07B68D9
:104A40005B68002B06D1FFF7F0F90346002B08D175
:104A5000012350E0FFF766F90346002B01D1012343
:104A600049E07B685B681846FFF72AFAFDF7F6FE17
:104A7000F8600AE0FDF7F2FE0246FB68D31A41F245
:104A80008832934201D9032335E0FFF72CFA02461E
:104A90007B685B689B009A42ECD1194B1B6803F062
:104AA00007033A689A421BD2154B1B6823F0070292
:104AB00013493B6813430B60FDF7D0FEF86008E034
:104AC000FDF7CCFE0246FB68D31A022B01D9032363
:104AD00011E00B4B1B6803F007033A689A42EFD1D1
:104AE00000F0B4F80346074A1360074B1B681846EA
:104AF000FEF724FA034618461037BD4680BD00BFB6
:104B000000400058040000200800002090B587B045
:104B100000AF00237B6100233B61FFF7E4F9B8603D
:104B2000FFF7CDFA7860BB68002B05D0BB680C2B73
:104B300039D17B68012B36D1FFF787F90346002B6B
:104B400015D1FFF782F90346012B06D1FFF78DF946
:104B500003461B0A03F00F0305E0FFF791F9034634
:104B60001B0A03F00F03364A52F8233014E0FFF714
:104B70006CF90346012B06D1FFF777F903461B09B1
:104B800003F00F0305E0FFF77BF903461B0903F071
:104B90000F032B4A52F823303B61BB68002B15D121
:104BA0003B697B6112E0BB68042B02D1254B7B6122
:104BB0000CE0BB68082B09D1FFF75AF80346012B1C
:104BC00002D1204B7B6101E01F4B7B61FFF78BF92A
:104BD00003460C2B2FD1FFF772FA78607B68022B0B
:104BE00003D07B68032B03D00DE0164BFB600DE078
:104BF000FFF73EF80346012B02D1124BFB6005E0A4
:104C0000114BFB6002E03B69FB6000BFFFF735FA28
:104C10000246FB6803FB02F4FFF746FA03461B0952
:104C20000133B4FBF3F4FFF734FA03465B0F0133AF
:104C3000B4FBF3F37B617B6918461C37BD4690BD1E
:104C40005CC700080024F4000048E80198B500AFF4
:104C5000FFF75CFF0446FFF7B5F903461B0903F0B5
:104C60000F03034A52F82330B4FBF3F3184698BD00
:104C7000FCC6000898B500AFFFF7E8FF0446FFF751
:104C8000B9F903461B0A034A52F8233024FA03F306
:104C9000184698BD3CC7000898B500AFFFF7D6FF8F
:104CA0000446FFF7B2F90346DB0A034A52F8233001
:104CB00024FA03F3184698BD3CC7000890B585B0A8
:104CC00000AF78607B681B0903F00F03104A52F8AD
:104CD0002330FB60FFF781F903461B0903F00F0344
:104CE0000C4A52F82330FA68B2FBF3F3BB60BB689E
:104CF000094AA2FB03239C0CFEF780FF03461946DA
:104D0000204600F00BF8034618461437BD4690BD08
:104D10005CC70008FCC6000883DE1B4380B58EB06C
:104D200000AF786039603A4A07F1200392E8030047
:104D3000186004331980374A07F1180392E803001A
:104D4000186004331980344A07F10C0307CA83E85A
:104D5000070000237B633B68B3F5007F1BD1002372
:104D60003B6314E03B6B5B0038333B4433F8183C47
:104D70001A467B68934207D83B6B9B0038333B4411
:104D800053F82C3C7B6321E03B6B01333B633B6B73
:104D9000022BE7D91AE00023FB6214E0FB6A5B00F8
:104DA00038333B4433F8203C1A467B68934207D89B
:104DB000FB6A9B0038333B4453F82C3C7B6305E093
:104DC000FB6A0133FB62FB6A022BE7D9134B1B68BA
:104DD00023F0070211497B6B13430B60FDF73EFD87
:104DE000B86208E0FDF73AFD0246BB6AD31A022B0F
:104DF00001D9032307E0094B1B6803F007037A6B13
:104E00009A42EFD1002318463837BD4680BD00BF17
:104E1000BCC60008C4C60008CCC600080040005844
:104E200080B400AF4FF0B043D3F8903003F00203EA
:104E3000022B01D1012300E000231846BD4680BCAF
:104E4000704780B483B000AF78604FF0B043D3F8C0
:104E500088207B681B0CDB431A407B689BB24FF0B9
:104E6000B0411343C1F8883000BF0C37BD4680BC49
:104E7000704780B483B000AF78604FF0B043D3F890
:104E8000883023F440724FF0B0417B681343C1F87F
:104E9000883000BF0C37BD4680BC704780B483B0FB
:104EA00000AF78604FF0B043D3F8883023F440620D
:104EB0004FF0B0417B681343C1F8883000BF0C3716
:104EC000BD4680BC704780B483B000AF78604FF0BF
:104ED000B043D3F888207B681B0903F47F23DB43AE
:104EE0001A407B681B0103F47F234FF0B04113434A
:104EF000C1F8883000BF0C37BD4680BC704780B415
:104F000083B000AF78604FF0B043D3F888207B685F
:104F10001B0C1B04DB431A407B681B044FF0B041A1
:104F20001343C1F8883000BF0C37BD4680BC7047C2
:104F300080B483B000AF78604FF0B043D3F88830CE
:104F400023F040424FF0B0417B681343C1F88830F2
:104F500000BF0C37BD4680BC704780B483B000AF43
:104F600078604FF0B043D3F8883023F040524FF0D0
:104F7000B0417B681343C1F8883000BF0C37BD4691
:104F800080BC704780B483B000AF78604FF0B0430E
:104F9000D3F8903023F440724FF0B0417B68134354
:104FA000C1F8903000BF0C37BD4680BC704780B45C
:104FB00000AF4FF0B043D3F8903003F4407318467D
:104FC000BD4680BC704780B400AF4FF0B043D3F80B
:104FD00090304FF0B04243F48033C2F8903000BFBD
:104FE000BD4680BC704780B400AF4FF0B043D3F8EB
:104FF00090304FF0B04223F48033C2F8903000BFBD
:10500000BD4680BC7047000080B586B000AF7860B8
:1050100000237B610023FB740023BB747B681B6847
:1050200003F48033002B58D0FEF7DAFDFDF716FCB1
:10503000F86009E0FDF712FC0246FB68D31A022B68
:1050400002D90323FB7406E07B4B1B6803F48073D7
:10505000B3F5807FEED1FB7C002B3CD1FFF7A7FF9F
:1050600002467B685B6B9A420FD04FF0B043D3F897
:10507000903023F440737B61FFF7A5FFFFF7B3FF88
:105080004FF0B0427B69C2F890307B6903F00203B5
:10509000002B14D0FDF7E2FBF8600BE0FDF7DEFB20
:1050A0000246FB68D31A41F28832934202D90323A5
:1050B000FB7404E0FFF7B4FE0346012BEED1FB7C4A
:1050C000002B05D17B685B6B1846FFF75BFF04E0A4
:1050D000FB7CBB7401E0FB7CBB747B681B6803F04A
:1050E0000103002B04D07B685B681846FFF7A9FE1C
:1050F0007B681B6803F00203002B04D07B689B686D
:105100001846FFF79EFE7B681B6803F02003002B08
:1051100004D07B681B691846FFF7C0FE7B681B68DC
:1051200003F40073002B04D07B681B6A1846FFF75A
:10513000E6FE7B681B6803F48063002B04D07B6869
:105140005B6A1846FFF7DBFE7B681B6803F40063AD
:10515000002B04D07B689B6A1846FFF7D0FE7B6863
:105160001B6803F04003002B04D07B685B69184682
:10517000FFF7A9FE7B681B6803F08003002B04D0B7
:105180007B689B691846FFF79EFE7B681B6803F4EB
:105190008073002B04D07B68DB691846FFF793FE11
:1051A0007B681B6803F01003002B11D07B68DB6861
:1051B0001846FFF75EFE7B68DB68B3F5807F07D19A
:1051C0004FF0B043DB684FF0B04243F08073D360E0
:1051D0007B681B6803F40043002B10D07B681B6BBB
:1051E0001846FFF7A5FE7B681B6B002B07D14FF01D
:1051F000B043DB684FF0B04243F08073D3607B680C
:105200001B6803F48043002B11D07B68DB6A1846CF
:10521000FFF7A3FE7B68DB6AB3F1005F07D14FF0B5
:10522000B043DB684FF0B04243F48033D360BB7CC3
:1052300018461837BD4680BD0004005880B483B0BE
:1052400000AF7860064B9B6823F4006204497B68DA
:1052500013438B6000BF0C37BD4680BC704700BF56
:105260000004005880B400AF054BD3F89030044AD6
:1052700043F40043C2F8903000BFBD4680BC704785
:105280000004005880B400AF054BD3F89030044AB6
:1052900023F40043C2F8903000BFBD4680BC704785
:1052A0000004005880B400AF034B4FF400629A61D1
:1052B00000BFBD4680BC70470004005880B400AFFA
:1052C000064B5B6903F00203022B01D1012300E0CE
:1052D00000231846BD4680BC704700BF000400583C
:1052E00080B400AF064B5B6903F00403042B01D1CB
:1052F000012300E000231846BD4680BC704700BF74
:105300000004005880B400AF4FF0B043D3F894309D
:105310004FF0B04223F40043C2F8943000BFBD46C2
:1053200080BC704780B400AF4FF0B043D3F89430E6
:1053300003F48043B3F5804F01D1012300E0002343
:105340001846BD4680BC704780B483B000AF78601B
:10535000064BD3F8902005497B681343C1F8903081
:1053600000BF0C37BD4680BC704700BF0008005826
:1053700080B584B000AF78607B68002B03D1012337
:10538000FB73FB7B52E00023FB737B689B79BB7351
:10539000BB7B002B02D0BB7B032B09D17B68002297
:1053A0005A717868FDF740FA4FF48050FFF7CCFF50
:1053B000BB7B002B26D17B6802229A71FFF7A2FFEC
:1053C0001C4B1A681346DB009B1A9B00DB0C642203
:1053D00002FB03F3BB60BB68002B05D10123FB7309
:1053E0007B6801229A6007E0BB68013BBB60FFF766
:1053F00099FF0346002BEED1FFF734FF4FF4006016
:10540000FFF71CFFFFF74EFFFB7B002B0AD17B68E9
:105410001B68184600F0ACFA7B6801221A717B68A1
:1054200000229A607B6801229A71FB7B1846103734
:10543000BD4680BD0400002080B586B000AFF86096
:105440007A601A460B467B8113463B81FB689B7949
:10545000DBB2012B4AD1FB685B79012B01D102231E
:1054600045E0FB6801225A71FB6802229A71F868D4
:1054700000F04CFBFFF706FF0D21F86800F098FAEA
:105480007B891B0A9BB2DBB21946F86800F090FAE0
:105490007B89DBB21946F86800F08AFA0023BB82E8
:1054A0000AE0BB8A7A6813441B781946F86800F052
:1054B0007FFABB8A0133BB82BA8A3B899A42F0D316
:1054C000FFF7D0FEF86800F045FBFB689B68002BF7
:1054D00002D00123FB7501E00023FB75FB6801226C
:1054E0009A71FB6800225A71FB7D00E00223184686
:1054F0001837BD4680BD80B588B000AFF8607A60CF
:105500001A460B467B8113463B817B68BB61FB6877
:105510009B79DBB2012B4AD1FB685B79012B01D16E
:10552000022345E0FB6801225A71F86800F0EEFAA8
:10553000FFF7A8FE1D21F86800F03AFA7B891B0AE4
:105540009BB2DBB21946F86800F032FA7B89DBB215
:105550001946F86800F02CFA0021F86800F028FAE3
:105560000023FB8209E0B969F86800F077FABB69AB
:105570000133BB61FB8A0133FB82FA8A3B899A4281
:10558000F1D3FFF76FFEF86800F0E4FAFB689B6860
:10559000002B02D00123FB7701E00023FB77FB689F
:1055A00001229A71FB6800225A71FB7F00E00223FE
:1055B00018462037BD4680BD80B586B000AFF86084
:1055C0007A601A460B46FB7213463B81FB689B7957
:1055D000DBB2012B4AD1FB685B79012B01D102239D
:1055E00045E0FB6801225A71F86800F08FFAFB7AF7
:1055F000842B02D0FB7A942B03D1FB6801221A7111
:1056000002E0FB6800221A71FFF73CFEFB7A1946A4
:10561000F86800F0CDF90023BB820AE0BB8A7A6803
:1056200013441B781946F86800F0C2F9BB8A0133AD
:10563000BB82BA8A3B899A42F0D3FFF713FEFB7A0A
:10564000842B02D0F86800F085FAFB689B68002B79
:1056500002D00123FB7501E00023FB75FB680122EA
:105660009A71FB6800225A71FB7D00E00223184604
:105670001837BD4680BD80B588B000AFF8607A604D
:105680001A460B46FB7213463B817B68BB61FB6885
:105690009B79DBB2012B3DD1FB685B79012B01D1FA
:1056A000022338E0FB6801225A71F86800F02EFAF4
:1056B000FFF7E8FDFB7A1946F86800F079F9002158
:1056C000F86800F075F90023FB8209E0B969F86811
:1056D00000F0C4F9BB690133BB61FB8A0133FB8273
:1056E000FA8A3B899A42F1D3FFF7BCFDF86800F0D3
:1056F00031FAFB689B68002B02D00123FB7701E0A5
:105700000023FB77FB6801229A71FB6800225A7123
:10571000FB7F00E0022318462037BD4680BD80B5E0
:1057200086B000AFF8607A601A460B46FB721346EB
:105730003B81FB689B79DBB2012B3ED1FB685B7937
:10574000012B01D1022339E0FB6801225A71F8686C
:1057500000F0DCF9FFF796FD0E21F86800F028F95B
:10576000FB7A1946F86800F023F90023BB820AE0AF
:10577000BB8A7A6813441B781946F86800F018F958
:10578000BB8A0133BB82BA8A3B899A42F0D3FFF7C6
:1057900069FDF86800F0DEF9FB689B68002B02D019
:1057A0000123FB7501E00023FB75FB6801229A7160
:1057B000FB6800225A71FB7D00E00223184618376F
:1057C000BD4680BD80B588B000AFF8607A601A46EB
:1057D0000B46FB7213463B817B68BB61FB689B7980
:1057E000DBB2012B41D1FB685B79012B01D1022394
:1057F0003CE0FB6801225A71F86800F087F9FFF776
:1058000041FD1E21F86800F0D3F8FB7A1946F868CC
:1058100000F0CEF80021F86800F0CAF80023FB82FF
:1058200009E0B969F86800F019F9BB690133BB6197
:10583000FB8A0133FB82FA8A3B899A42F1D3FFF754
:1058400011FDF86800F086F9FB689B68002B02D018
:105850000123FB7701E00023FB77FB6801229A71AB
:10586000FB6800225A71FB7F00E0022318462037B4
:10587000BD4680BD80B584B000AF78600023BB8199
:1058800007F10C02022312217868FFF7F4FE3B7B3C
:10589000FB81FB891B021AB27B7B1BB213431BB239
:1058A000FB8107F10C02022302217868FFF784FED6
:1058B000FB8903F00103002B02D0786805F0FEF9A4
:1058C000FB8903F00203002B02D0786805F004FA8C
:1058D000FB8903F00403002B02D0786805F054FA2A
:1058E000FB8903F00803002B02D0786805F05AFA10
:1058F000FB8903F01003002B02D0786805F060FAF2
:10590000FB8903F02003002B02D0786805F02EFA03
:10591000FB8903F04003002B02D0786805F0EAF918
:10592000FB8903F08003002B0DD0FB8903F4807307
:10593000002B04D00121786805F0EAF903E000218A
:10594000786805F0E5F9FB8903F40073002B02D0B9
:10595000786805F0FBF9FB8903F48043002B02D043
:10596000786805F03BFA00BF1037BD4680BD0000E7
:1059700080B483B000AF78600C4B1B680B4A23F0F7
:1059800040031360094A7B6843F441731360074B7B
:105990004FF4B8525A60054B1B68044A43F0400369
:1059A000136000BF0C37BD4680BC70470000015833
:1059B00080B487B000AF78600B46FB700023FB75A6
:1059C000234B1A681346DB009B1A9B00DB0C6422F6
:1059D00002FB03F3FB60FB68002B05D10123FB7581
:1059E0007B6801229A6008E0FB68013BFB60194B71
:1059F0009B6803F00203022BEDD1174B3B613B691F
:105A0000FA781A70124B1A681346DB009B1A9B0037
:105A1000DB0C642202FB03F3FB60FB68002B05D167
:105A20000123FB757B6801229A6008E0FB68013B5B
:105A3000FB60084B9B6803F00103012BEDD1054B84
:105A4000DB68FB7D18461C37BD4680BC704700BF35
:105A500004000020000001580C00015880B487B0F9
:105A600000AF786039600023FB75254B1A68134638
:105A7000DB009B1A9B00DB0C642202FB03F3FB6040
:105A8000FB68002B05D10123FB757B6801229A601E
:105A900008E0FB68013BFB601A4B9B6803F00203C4
:105AA000022BEDD1184B3B613B69FF221A70144B5E
:105AB0001A681346DB009B1A9B00DB0C642202FB76
:105AC00003F3FB60FB68002B05D10123FB757B68AA
:105AD00001229A6008E0FB68013BFB60094B9B6870
