:020000040800F2
:1000000000000120351D0008E7160008ED16000865
:10001000F3160008F9160008FF160008000000009B
:1000200000000000000000000000000005170008AC
:1000300011170008000000001D170008291700080C
:10004000851D0008851D0008851D0008851D000808
:10005000851D0008851D0008851D0008851D0008F8
:10006000851D0008851D0008851D0008351700083E
:1000700049170008851D0008851D0008851D00081A
:10008000851D0008851D0008851D0008851D0008C8
:10009000851D0008851D0008851D0008851D0008B8
:1000A000851D0008851D0008851D00085D170008D6
:1000B000851D0008851D0008851D0008851D000898
:1000C000851D0008851D0008851D0008851D000888
:1000D000851D000871170008851D0008851D000892
:1000E000851D0008851D0008851D0008851D000868
:1000F000851D0008851D0008851D0008851D000858
:10010000851D0008851D000885170008851D00084D
:10011000851D0008851D0008851D0008851D000837
:10012000851D0008851D0008851D0008851D000827
:08013000851D0008851D000873
:1001400010B5054C237833B9044B13B10448AFF311
:1001500000800123237010BD60000020000000001B
:1001600080AF000808B5034B1BB103490348AFF348
:10017000008008BD000000006400002080AF00087F
:1001800001F0FF01102A2BDB10F0070F08D010F848
:10019000013B013A8B422DD010F0070F42B3F6D14C
:1001A000F0B441EA012141EA014122F007047FF065
:1001B00000070023F0E80256083C85EA010586EABC
:1001C000010685FA47F5A3FA87F586FA47F6A5FAF8
:1001D00087F68EB9EED1F0BC01F0FF0102F0070204
:1001E00032B110F8013B013A83EA010313B1F8D1AF
:1001F0000020704701387047002D06BF3546033890
:10020000073815F0010F07D1013015F4807F02BFC8
:10021000013015F4C03F0130F0BC0138704700BF19
:1002200053B94AB9002908BF00281CBF4FF0FF315D
:100230004FF0FF3000F070B9ADF1080C6DE904CE5D
:1002400000F006F8DDF804E0DDE9022304B07047B1
:100250002DE9F047089E0D4604460F46002B4AD173
:100260008A42944665D9B2FA82F343B102FA03FC9A
:10027000C3F120029F4020FA02F217439C404FEA4C
:100280001C4E1FFA8CF5B7FBFEF1220C0EFB11770A
:1002900042EA074201FB05F090420AD91CEB020238
:1002A00001F1FF3780F01B81904240F21881023942
:1002B0006244121AA4B2B2FBFEF00EFB102244EA12
:1002C000024400FB05F5A5420AD91CEB040400F129
:1002D000FF3280F00681A54240F203816444023877
:1002E00040EA0140641B00211EB1DC400023C6E946
:1002F0000043BDE8F0878B4208D9002E00F0EC8067
:100300000021C6E900050846BDE8F087B3FA83F18D
:10031000002949D1AB4202D3824200F2F780841A0D
:1003200065EB030201201746002EE2D0C6E9004724
:10033000DFE702B9FFDEB2FA82F3002B40F08F80D4
:100340008A1A4FEA1C471FFA8CFE0121B2FBF7F50F
:1003500007FB1520220C42EA00420EFB05F09042FA
:1003600008D91CEB020205F1FF3802D2904200F2DC
:10037000CA804546121AA4B2B2FBF7F007FB10225E
:1003800044EA02440EFB00FEA64508D91CEB040417
:1003900000F1FF3202D2A64500F2BA801046A4EB6B
:1003A0000E0440EA05409FE7C1F120078B4022FA86
:1003B00007FC4CEA030C05FA01F420FA07F3FD40B0
:1003C000234300FA01F94FEA1C401FFA8CFEB5FBEB
:1003D000F0F81C0C00FB185544EA054408FB0EF528
:1003E000A54202FA01F20BD91CEB040408F1FF3A12
:1003F00080F08780A54240F28480A8F1020864441E
:10040000641B9DB2B4FBF0F300FB134445EA0444C3
:1004100003FB0EFEA64508D91CEB040403F1FF30D4
:100420006BD2A64569D9023B644443EA0840A0FB6D
:100430000283A4EB0E049C42C6461D4655D352D0FF
:1004400056B1B9EB0E0364EB050404FA07F7CB4091
:10045000CC401F43C6E900740021BDE8F087C3F11A
:10046000200102FA03FC20FA01F225FA01F19D4075
:100470002A434FEA1C471FFA8CFEB1FBF7F007FB3B
:100480001015110C41EA054100FB0EF58D4204FAEE
:1004900003F408D91CEB010100F1FF382FD28D4283
:1004A0002DD902386144491B92B2B1FBF7F507FB25
:1004B000151142EA014205FB0EF1914208D91CEBED
:1004C000020205F1FF3816D2914214D9023D62446E
:1004D000521A45EA004139E73146304609E73946C4
:1004E000E7E61046FCE6C145AAD2B8EB020E63EB84
:1004F0000C050138A4E74546EAE7034695E7404680
:10050000D1E7D0467CE7023D624433E708460BE77B
:100510006444023843E700BF704700BF80B586B02F
:1005200000AF78600B46FB700023FB81FB78194617
:10053000786800F035F90346FB81224B7E221A7061
:1005400001237B6100233B610EE03B697A68134421
:1005500019781C4A7B6913440A461A707B69013377
:100560007B613B6901333B61FB783A699A42ECDB82
:10057000FB891B0A9BB2D9B2124A7B6913440A4613
:100580001A707B6901337B61FB89D9B20D4A7B69A3
:1005900013440A461A707B6901337B61094A7B69FF
:1005A00013447E221A706422002107480AF066F87C
:1005B0006422002105480AF061F800BF1837BD46E3
:1005C00080BD00BFE80100207C000020E00000208A
:1005D00080B586B000AF78600B46FB702B4B722263
:1005E0001A702A4B9C225A70284B64229A70274B0F
:1005F000A622DA70254B64221A71244B40225A71CC
:10060000224BE0229A71214B7222DA711F4B9C22FD
:100610001A721E4B64225A721C4BA6229A721B4BF2
:100620006422DA72194B40221A73184B61225A73F2
:10063000164B03229A73154BF022DA7310237B6159
:1006400000233B610EE03B697A68134419780F4A36
:100650007B6913440A461A707B6901337B613B69ED
:1006600001333B61FB783A699A42ECDB7A690849CD
:10067000064800F0D4F8F860FB68DBB2194604487D
:10068000FFF74CFF00BF1837BD4680BD7C0000203F
:10069000E00000200FB480B582B000AF07F1140372
:1006A0003B603B683A6964210A4809F0D9FF094870
:1006B00000F014F878607B689AB24FF47A730549B9
:1006C000054804F051FE00BF0837BD46BDE8804034
:1006D00004B07047440100209003002080B485B02E
:1006E00000AF78600023FB6002E0FB680133FB6031
:1006F0007B685A1C7A601B78002BF6D1FB68184681
:100700001437BD4680BC704780B485B000AF7860B8
:10071000094B1B6800225A6202E0FB680133FB6050
:10072000054B1B685B6A7A689A42F6D800BF00BF27
:100730001437BD4680BC70474003002080B485B0AC
:1007400000AF78604FF0B0439A6C4FF0B0417B68D7
:1007500013438B644FF0B0439A6C7B681340FB608B
:10076000FB6800BF1437BD4680BC704780B500AF42
:100770000420FFF7E3FF0120FFF7E0FF0022002144
:100780000B2001F044FC0B2001F05BFC0022002157
:100790000C2001F03CFC0C2001F053FC00BF80BD9C
:1007A00080B487B000AF786039604FF6FF73FB828A
:1007B00041F221037B8100233B6126E07A683B699B
:1007C00013441B781B021AB2B7F9163053401BB200
:1007D000FB820023FB6012E0B7F91630002B08DA29
:1007E000FB8A5B001AB2B7F90A3053401BB2FB8296
:1007F00002E0FB8A5B00FB82FB680133FB60FB6865
:10080000072BE9DD3B6901333B613A693B689A425A
:10081000D4D3FB8A18461C37BD4680BC704780B4D1
:100820008FB000AFF860B9607A6000237B6300236B
:100830003B63002387F82F300723BB6200237B62D2
:1008400000233B620023FB6178E00723BB616FE07C
:10085000FB69FA6813441B781A46BB6942FA03F332
:1008600003F001033B613A69BB6A02FA03F35AB22F
:1008700097F92F3013435BB287F82F30BB6A013BE7
:10088000BB623B69002B2FD03B6B01333B633B6B5F
:10089000052B2BD1BB6A002B10DA7B6B5A1C7A63B9
:1008A0001A46BB68134497F82F201A707B6A0133ED
:1008B0007B62002387F82F300723BB620122BB6ACB
:1008C00002FA03F35BB2DB435AB297F92F301340BD
:1008D0005BB287F82F30BB6A013BBB623B6A0133D6
:1008E0003B6200233B6301E000233B63BB6A002BB8
:1008F00010DA7B6B5A1C7A631A46BB68134497F86C
:100900002F201A707B6A01337B62002387F82F3017
:100910000723BB623B6A082B07DDBB6A002B04DBA5
:100920007B6A01337B6200233B62BB69013BBB6195
:10093000BB69002B8CDAFB690133FB61FA697B68C8
:100940009A4282DBBB6A062B0BDC7B6B5A1C7A63F8
:100950001A46BB68134497F82F201A707B6A01333C
:100960007B6200237B610AE07B69FA681A447B6939
:10097000B9680B4412781A707B6901337B617A691C
:100980007B689A42F0DB7B687B637B6B18463C3765
:10099000BD4680BC704780B48DB000AFF860B960D0
:1009A0007A600023FB620023BB62002387F82730B4
:1009B00007233B620023FB6152E00723BB6149E050
:1009C000FB69FA6813441B781A46BB6942FA03F3C1
:1009D00003F001033B613B69002B11D0BB6A01337B
:1009E000BB623A693B6A02FA03F35AB297F92730BD
:1009F00013435BB287F827303B6A013B3B6215E04B
:100A0000BB6A052B02D10023BB6220E00023BB623E
:100A10003A693B6A02FA03F35AB297F92730134353
:100A20005BB287F827303B6A013B3B623B6A002B95
:100A30000DDAFB6A5A1CFA621A46BB68134497F82F
:100A400027201A70002387F8273007233B62BB69F1
:100A5000013BBB61BB69002BB2DAFB690133FB616F
:100A6000FA697B689A42A8DB3B6A062B08DCFB6AC2
:100A70005A1CFA621A46BB68134497F827201A706A
:100A800000237B610AE07B69FA681A447B69B968D4
:100A90000B4412781A707B6901337B617A697B6839
:100AA0009A42F0DB7B68FB62FB6A18463437BD462E
:100AB00080BC704780B485B000AF78604FF0B04321
:100AC000DA6C4FF0B0417B681343CB644FF0B04316
:100AD000DA6C7B681340FB60FB6800BF1437BD46CF
:100AE00080BC704780B586B000AF3B1D00221A6005
:100AF0005A609A60DA601A610120FFF7DBFF02207A
:100B0000FFF7D8FF0420FFF7D5FF00224FF40A417A
:100B10001F4801F093FF002238211E4801F08EFF8C
:100B20004FF40A437B600123BB600023FB60022378
:100B30003B613B1D1946164801F020FE38237B60BF
:100B40000123BB600023FB6003233B613B1D19466F
:100B5000104801F013FE03237B604FF40413BB60C5
:100B60000123FB603B1D19464FF0904001F006FE4B
:100B700040237B604FF40413BB600123FB603B1DEB
:100B80001946044801F0FAFD00BF1837BD4680BD84
:100B9000000400480008004880B487B000AF7860C7
:100BA000396000237B6100233B610023FB6000234D
:100BB000BB6013E0BB687A6813441B787E2B0AD1B4
:100BC0007B69002B04D101237B61BB683B6102E0A0
:100BD000BB68FB6006E0BB680133BB60BA683B687A
:100BE0009A42E7DBFA683B699A4204DDFA683B699E
:100BF000D31A013301E04FF0FF3318461C37BD46CE
:100C000080BC704780B582B000AF0346FB71114BCA
:100C100000221A700F4AFB7913720E4B08225A8079
:100C20000C4B04221A710B4B18225A71094B0022EB
:100C30009A71084B0022DA71064BF2225A72054B68
:100C400001229A72034808F0DFFC00BF0837BD4656
:100C500080BD00BFA801002080B582B000AF7860E1
:100C600039600B4B00221A70094B0D225A73084A47
:100C70007B685360064A3B689360054B0B221A73EE
:100C8000034808F0EFFB00BF0837BD4680BD00BF3A
:100C9000BC01002080B584B000AF78600B46FB70CB
:100CA0000021002008F04EFDFB781946786807F017
:100CB0002FFF0F4A07F1080392E8030083E80300BF
:100CC00007F10803184607F068FF40F2FF1007F02D
:100CD000B3FF012301220021072008F00BFA0222B2
:100CE0000E21012008F0F0FA00BF1037BD4680BD8C
:100CF00098AF000880B586B000AF78607B682A4A5C
:100D000093424DD10023FB73284B1B78FA7B9A4208
:100D100003D0264B1B78532B11D000237B610BE0B3
:100D20007B690133214AD15C204A7B6913440A461E
:100D30001A707B6901337B617B690C2BF0D91B49ED
:100D40001B48FFF7A7FC1B4B1B780D2B1AD1002368
:100D50003B610AE0154A3B6913441B781946164863
:100D6000FFF798FC3B6901333B61124B1B781A4635
:100D70003B699342EEDB1148FFF78CFC104B0122DC
:100D80001A600DE009490F48FFF784FC094B1B78F6
:100D90001A460021054809F071FC094B00221A602F
:100DA00000BF1837BD4680BD90030020D801002049
:100DB000A0AF000800000020C4AF0008CCAF0008BE
:100DC00020030020D0AF000880B584B002AF00F04F
:100DD000DBFF00F081F9FFF785FEFFF7C7FC00F0AD
:100DE000A1FE00F091FD09F08AF8954803F07EFE1F
:100DF000944807F03BFE0023002240F20F2140F20E
:100E00000F2008F099F99048FFF744FC8F48FFF74E
:100E100041FC8F48FFF73EFC8E4A8F498F48FFF711
:100E200039FC8F48FFF736FC0E2300930123002284
:100E300007218C48FFF72EFC8B48FFF72BFC8B48D3
:100E4000FFF728FC8A48FFF725FC8A4B1B781846D9
:100E5000FFF7D8FE42F6E0614FF49650FFF7FCFE34
:100E6000844B1B7819468448FFF714FF8348FFF72B
:100E700011FC79498248FFF70DFC824B5B681946EB
:100E80008148FFF707FC7F4B9B6819467F48FFF7B7
:100E900001FC7C4B5B7B19467D48FFF7FBFB7D4BE0
:100EA0001B7819467C48FFF7F5FB7A4B1B7A1946ED
:100EB0007A48FFF7EFFB774B5B8819467848FFF7D6
:100EC000E9FB744B1B7919467648FFF7E3FB714B3E
:100ED000DB7919467448FFF7DDFB7448FFF7DAFB4E
:100EE0005D4808F085F90021012008F0C9FD6FF088
:100EF0007F4007F0A9FF6E4B1B789BB21A466D49E5
:100F00006D4804F0B7FA09F002F86C48FFF7FCFBF3
:100F10006B4B1B68002B00F08980654B1B781946D2
:100F20006448FFF755FB64216648FFF735FE03462A
:100F3000654A136000237B600BE0624A7B681344C0
:100F40001978624A7B6813440A461A707B68013339
:100F50007B605D4B1B687A689A42EEDB544B1B78D2
:100F60001A460021534809F089FB642200215548A4
:100F700009F084FB544B1B68DBB21846FFF742FEB6
:100F800040F6B8314FF49660FFF766FE4E4B1B6893
:100F9000DBB219464D48FFF77DFE4D48FFF77AFB5F
:100FA0002C494C48FFF776FB364B5B6819463648B0
:100FB000FFF770FB334B9B6819463448FFF76AFB19
:100FC000304B5B7B19463248FFF764FB314B1B7893
:100FD00019463148FFF75EFB2E4B1B7A19462F4806
:100FE000FFF758FB2B4B5B8819462D48FFF752FB48
:100FF000284B1B7919462B48FFF74CFB254BDB7917
:1010000019462948FFF746FB2848FFF743FB1148DC
:1010100008F0EEF80121012008F032FD2A4B1B6890
:10102000DBB200221946294807F0A4FD204B1B78AB
:101030009BB21A461F49204804F01CFA63E700BF20
:101040004003002099110008ECAF000828B0000808
:101050005CB000086859F21918D0111A78B000086D
:10106000B8B00008E0B0000834B100087CB1000856
:10107000A0B1000801000020B4020020CCB100089B
:10108000F8B10008BC01002020B2000830B200080E
:101090004CB20008A801002068B200087CB2000829
:1010A00094B20008ACB20008C4B20008D8B200087C
:1010B00000000020D80100209003002020A107009C
:1010C00020030020E80100204C02002050020020F4
:1010D0000CB3000838B3000880B59AB000AF07F130
:1010E000200348220021184609F0C8FA3B1D0022BF
:1010F0001A605A609A60DA601A615A619A61254BE7
:101100001B6823F4C063234A43F400731360214B2C
:101110001B6803F4C0633B603B6801233B624FF4F0
:1011200004137B620023BB620223FB6403233B6541
:1011300010237B650623BB654FF40033FB654FF03E
:1011400000537B664FF000733B6607F1200318469F
:1011500001F05EFF0346002B01D000F0B9FA4F23E7
:101160007B600323BB600023FB6000233B61002303
:101170007B610023FB613B1D0221184602F0CAFA85
:101180000346002B01D000F0A3FA00BF6837BD462C
:1011900080BD00BF000400582DE9F04FC1B000AF82
:1011A0000346FB83FB8B012B40F08780974B00228B
:1011B0001A60974B1B6819469648FFF76BFA002395
:1011C000C7F8F4300DE0944AD7F8F43013441B7894
:1011D00019469248FFF75EFAD7F8F4300133C7F8A2
:1011E000F4308B4B1B68D7F8F4209A42EBDB8C4829
:1011F000FFF750FA64220021874809F03FFA894B33
:101200001B781846FFF7FEFC42F6E0614FF496505B
:10121000FFF722FD834B1B7819468348FFF73AFD01
:101220008248FFF737FA82498248FFF733FA824B48
:101230005B6819468148FFF72DFA7F4B9B6819467A
:101240007F48FFF727FA7C4B5B7B19467D48FFF709
:1012500021FA7D4B1B7819467C48FFF71BFA7A4B25
:101260001B7A19467A48FFF715FA774B5B881946BF
:101270007848FFF70FFA744B1B7919467648FFF749
:1012800009FA714BDB7919467448FFF703FA744881
:10129000FFF700FA664807F0ABFF0021012008F0D5
:1012A000EFFB6FF07F4007F0CFFD6E4B1B789BB2DA
:1012B0001A466D496D4804F0DDF8FB8B022B40F0B7
:1012C000E981524B00221A6069225649564807F0BC
:1012D0002FFC08F04EFA03461A46654B1A600023AD
:1012E00087F8E7304F4B1B7819464F48FFF754FCFF
:1012F000034687F8E7306B46BB6197F8E7603346F3
:10130000013BC7F8E030F3B200221C4615464FF00F
:1013100000024FF00003EB0043EA5473E200F3B223
:1013200000223B607A604FF000024FF00003D7E9E3
:1013300000452946CB0020462946044643EA54731B
:101340000146CA0033460733DB08DB00ADEB030D73
:101350006B460033C7F8DC300023C7F8FC3010E0E0
:10136000314AD7F8FC3013441978D7F8DC20D7F885
:10137000FC3013440A461A70D7F8FC300133C7F822
:10138000FC3097F8E730D7F8FC209A42E8DB97F872
:10139000E730043B87F8DB3097F8DB402346013B1E
:1013A000C7F8D430E3B200223B617A614FF000020B
:1013B0004FF000037969CB00D7E90401054643EA01
:1013C00055730146CA00E3B20022BB60FA604FF0D9
:1013D00000024FF00003F968CB00D7E9020105468F
:1013E00043EA55730146CA0023460733DB08DB0096
:1013F000ADEB030D6B460033C7F8D0300023C7F8C0
:10140000F8300123C7F8F0304BE000BF2003002084
:101410004C02002060B3000850020020C4AF000856
:10142000CCAF000801000020B4020020CCB10008BD
:1014300018D0111AF8B10008BC01002020B2000831
:1014400030B200084CB20008A801002068B20008C1
:101450007CB2000894B20008ACB20008C4B2000824
:10146000D8B2000800000020D8010020900300201E
:1014700024030020D7F8DC20D7F8F0301344197883
:10148000D7F8D020D7F8F83013440A461A70D7F8A6
:10149000F8300133C7F8F830D7F8F0300133C7F827
:1014A000F03097F8DB30D7F8F0209A42E2DD0023E5
:1014B000A7F8CE3097F8DB301946D7F8D000FFF701
:1014C0006FF90346A7F8CE30B7F8CE301B0A9BB2AF
:1014D000DBB287F8BC30B7F8CE30DBB287F8BD306E
:1014E00097F8E730033BD7F8DC20D35C87F8CD30A2
:1014F00097F8E730023BD7F8DC20D35C87F8CC3094
:1015000097F8BC3097F8CD209A427BD197F8BD3040
:1015100097F8CC209A4275D16B461C4697F8DB2091
:1015200007F124031946D7F8D000FFF734FAC7F8BB
:10153000C8005B4B1B681A46D7F8C8105948FFF71C
:10154000A9F8D7F8C8104B1EC7F8C4300A460023C4
:1015500092469B464FF000024FF000034FEACB0348
:1015600043EA5A734FEACA020A4600239046994654
:101570004FF000024FF000034FEAC90343EA5873EB
:101580004FEAC8020B460733DB08DB00ADEB030D67
:101590006B460033C7F8C0300023C7F8EC301BE0BF
:1015A00007F12402D7F8EC3013441978D7F8C0209B
:1015B000D7F8EC3013440A461A70D7F8C020D7F891
:1015C000EC3013441B7819463748FFF763F8D7F817
:1015D000EC300133C7F8EC30D7F8EC20D7F8C8303E
:1015E0009A42DDDB3148FFF755F83148FFF752F8F2
:1015F000D7F8C8301A460021D7F8C00009F03EF8E5
:10160000A54632E02B4B1B6801332A4A1360294B55
:101610001B6819462848FFF73DF80023C7F8E83053
:101620000EE0D7F8DC20D7F8E83013441B781946D1
:101630001D48FFF72FF8D7F8E8300133C7F8E83036
:101640003246D7F8E8309A42EBD81848FFF722F82C
:101650001748FFF71FF8194B00221A7023461A4645
:101660000021D7F8D00009F009F8D7F818D01448AD
:1016700007F0BEFD0021012008F002FA6FF07F4064
:1016800007F0E2FB0F4B1B789BB21A460E490F483E
:1016900003F0F0FE00BF07F58277BD46BDE8F08F8E
:1016A0002403002094B30008C4AF0008CCAF0008A6
:1016B000D0B3000828030020E0B30008B4020020E3
:1016C00018D0111A00000020D8010020900300203B
:1016D00080B400AF72B600BFFEE780B400AF00BFB9
:1016E000BD4680BC704780B400AFFEE780B400AF59
:1016F000FEE780B400AFFEE780B400AFFEE780B441
:1017000000AFFEE780B400AF00BFBD4680BC7047AD
:1017100080B400AF00BFBD4680BC704780B400AF4E
:1017200000BFBD4680BC704780B500AF00F086FBAF
:1017300000BF80BD80B500AF024800F081FE00BF51
:1017400080BD00BF2404002080B500AF024800F037
:1017500077FE00BF80BD00BF8404002080B500AFCD
:10176000024803F007FA00BF80BD00BF400300201D
:1017700080B500AF024803F0C9FE00BF80BD00BFC6
:101780009003002080B500AF024802F0B9FF00BF0F
:1017900080BD00BF2C03002080B485B000AF78600E
:1017A0004FF0B0435A6E4FF0B0417B6813434B6625
:1017B0004FF0B0435A6E7B681340FB60FB6800BF7C
:1017C0001437BD4680BC704780B500AF064B102271
:1017D0001A60054802F012FD0346002B01D0FFF706
:1017E00077FF00BF80BD00BF2C03002080B582B012
:1017F00000AF78600120FFF7CFFF002200213220E8
:1018000000F005FC322000F01CFC00BF0837BD468C
:1018100080BD80B400AF00BFBD4680BC70470000F3
:1018200080B582B000AF00237B60064B1B78002B95
:1018300002D000F010F978607B6818460837BD4682
:1018400080BD00BF3803002080B582B000AF786053
:101850007B68184600F02DF900BF0837BD4680BDF3
:1018600080B586B000AF7860144A154BD31A7B61FF
:101870007B693B61134B1B68002B02D1114B124A51
:101880001A60104B1A687B6813443A699A4207D26F
:1018900008F0FCFE03460C221A604FF0FF3309E00B
:1018A000084B1B68FB60074B1A687B681344054AAA
:1018B0001360FB6818461837BD4680BD0000012044
:1018C000000400003C030020F007002080B400AFBB
:1018D00000BFBD4680BC704780B485B000AF786063
:1018E0004FF0B0439A6D4FF0B0417B6813438B6566
:1018F0004FF0B0439A6D7B681340FB60FB6800BFFC
:101900001437BD4680BC704780B588B000AF07F182
:10191000100300221A605A609A60DA603B1D0022B0
:101920001A605A609A601D4B4FF080421A601B4B40
:101930002F225A60194B00229A60184B184ADA601D
:10194000164B00221A61154B00229A61134803F0CE
:1019500075F80346002B01D0FFF7BAFE4FF4805311
:101960003B6107F1100319460C4803F022FA0346C5
:10197000002B01D0FFF7ACFE00237B600023FB604F
:101980003B1D1946054803F005FC0346002B01D01A
:10199000FFF79EFE00BF2037BD4680BD40030020FC
:1019A00040420F0080B582B000AF78607B681B6852
:1019B000B3F1804F0AD10120FFF78EFF00220021F2
:1019C0001B2000F024FB1B2000F03BFB00BF08376E
:1019D000BD4680BD80B483B000AF0023FB71FB79AE
:1019E00018460C37BD4680BC704780B485B000AF48
:1019F00078600023FB73FB7B18461437BD4680BC20
:101A0000704780B483B000AF0023FB71FB791846A8
:101A10000C37BD4680BC704780B400AF024B1B68DA
:101A20001846BD4680BC70478C03002080B400AFD0
:101A3000024B1B681846BD4680BC70478C030020D3
:101A400080B483B000AF00237B607B6818460C37FE
:101A5000BD4680BC704780B483B000AF00237B607C
:101A60007B6818460C37BD4680BC704780B483B095
:101A700000AF00237B607B6818460C37BD4680BCF6
:101A8000704780B485B000AF78600023FB60FB68CE
:101A900018461437BD4680BC704780B485B000AF8F
:101AA00078600023FB60FB6818461437BD4680BC95
:101AB000704780B483B000AF786000BF0C37BD467C
:101AC00080BC704780B485B000AF78604FF0B04301
:101AD000DA6C4FF0B0417B681343CB644FF0B043F6
:101AE000DA6C7B681340FB60FB6800BF1437BD46AF
:101AF00080BC704780B485B000AF78604FF0B043D1
:101B00009A6D4FF0B0417B6813438B654FF0B04343
:101B10009A6D7B681340FB60FB6800BF1437BD46BD
:101B200080BC704780B500AF224B234A1A60214B1E
:101B30004FF4E1325A601F4B00229A601D4B002285
:101B4000DA601C4B00221A611A4B0C225A61194BA5
:101B500000229A61174B0022DA61164B00221A62AA
:101B6000144B00225A62134B00229A62114803F070
:101B7000ABFB0346002B01D0FFF7AAFD00210D4867
:101B800004F00EFF0346002B01D0FFF7A1FD00215A
:101B9000084804F043FF0346002B01D0FFF798FDEF
:101BA000044804F0C5FE0346002B01D0FFF790FD6A
:101BB00000BF80BD900300200044004080B596B077
:101BC00000AF786007F1440300221A605A609A60FF
:101BD000DA601A6107F10C0338220021184608F078
:101BE0004DFD7B681B684E4A934240F0948002236F
:101BF000FB604FF440237B6107F10C03184602F0B1
:101C000049F90346002B01D0FFF762FD4FF4003085
:101C1000FFF770FF0120FFF755FF0C237B640223C1
:101C2000BB640023FB6400233B6507237B6507F14E
:101C3000440319464FF0904000F0A0FD394B3A4A5A
:101C40001A60384B13225A60364B00229A60354B8B
:101C50000022DA60334B80221A61324B00225A6133
:101C6000304B00229A612F4B0022DA612D4B00226B
:101C70001A622C4800F000FA0346002B01D0FFF74F
:101C800027FD1021274800F0A1FC0346002B01D0BE
:101C9000FFF71EFD7B68234AC3F88020214A7B683A
:101CA0009362224B224A1A60204B14225A601F4B27
:101CB00010229A601D4B0022DA601C4B80221A61B0
:101CC0001A4B00225A61194B00229A61174B0022CD
:101CD000DA61164B00221A62144800F0CDF903466F
:101CE000002B01D0FFF7F4FC1021104800F06EFC2F
:101CF0000346002B01D0FFF7EBFC7B680B4ADA6749
:101D00000A4A7B68936200220021252000F07FF9B7
:101D1000252000F096F900BF5837BD4680BD00BFB2
:101D200000440040240400200800024084040020F5
:101D30001C0002400D488546FFF7C8FD0C480D49C0
:101D40000D4A002302E0D458C4500433C4188C4216
:101D5000F9D30A4A0A4C002301E013600432A2427C
:101D6000FBD308F099FCFFF72FF8FEE700000120F5
:101D70000000002060000020D4B6000860000020B1
:101D8000F0070020FEE7000080B582B000AF00231E
:101D9000FB71032000F030F901F09EFE0346094A72
:101DA0001360002000F010F80346002B02D001233E
:101DB000FB7101E0FFF791FCFB7918460837BD463F
:101DC00080BD00BF0400002080B584B000AF786003
:101DD0000023FB73174B1B78002B24D001F07CFEF3
:101DE0000246144B1B7819464FF47A73B3FBF1F398
:101DF000B2FBF3F3184600F032F90346002B0FD183
:101E00007B680F2B09D8002279684FF0FF3000F073
:101E1000FEF8094A7B68136007E00123FB7304E0C6
:101E20000123FB7301E00123FB73FB7B1846103792
:101E3000BD4680BD0C0000200800002080B400AF2B
:101E4000054B1B781A46054B1B681344034A136065
:101E500000BFBD4680BC70470C000020E404002099
:101E600080B485B000AF78607B6803F00703FB6047
:101E70000C4BDB68BB60BA684FF6FF031340BB60D6
:101E8000FB681A02BB68134343F0BF6343F400339B
:101E9000BB60044ABB68D36000BF1437BD4680BC3A
:101EA000704700BF00ED00E080B400AF044BDB687A
:101EB0001B0A03F007031846BD4680BC704700BFED
:101EC00000ED00E080B483B000AF0346FB7197F9EA
:101ED0000730002B0BDBFB7903F01F02064997F953
:101EE00007305B09012000FA02F241F8232000BF0D
:101EF0000C37BD4680BC704700E100E080B483B081
:101F000000AF03463960FB7197F90730002B0ADBFD
:101F10003B68DAB20C4997F907301201D2B20B4490
:101F200083F800230AE03B68DAB20849FB7903F042
:101F30000F03043B1201D2B20B441A7600BF0C37D8
:101F4000BD4680BC704700BF00E100E000ED00E04E
:101F500080B489B000AFF860B9607A60FB6803F0C4
:101F60000703FB61FB69C3F10703042B28BF0423AC
:101F7000BB61FB690433062B02D9FB69033B00E01C
:101F800000237B614FF0FF32BB6902FA03F3DA43AF
:101F9000BB681A407B699A404FF0FF317B6901FAB8
:101FA00003F3D9437B680B40134318462437BD46DF
:101FB00080BC704780B582B000AF78607B68013B21
:101FC000B3F1807F01D301230FE00A4A7B68013B14
:101FD00053600F214FF0FF30FFF790FF054B0022B9
:101FE0009A60044B07221A60002318460837BD4642
:101FF00080BD00BF10E000E080B582B000AF786027
:102000007868FFF72DFF00BF0837BD4680BD80B55B
:1020100086B000AF0346B9607A60FB73FFF744FFF8
:1020200078617A68B9687869FFF792FF024697F994
:102030000F3011461846FFF761FF00BF1837BD4645
:1020400080BD80B582B000AF0346FB7197F90730C1
:102050001846FFF737FF00BF0837BD4680BD80B583
:1020600082B000AF78607868FFF7A4FF0346184697
:102070000837BD4680BD000080B582B000AF7860F3
:102080007B68002B01D101238EE07B681B681A4618
:10209000474B9A420FD87B681B681A46454B13443E
:1020A000454AA2FB03231B099A007B685A647B689C
:1020B000424A1A640EE07B681B681A46404B134480
:1020C0003D4AA2FB03231B099A007B685A647B6884
:1020D0003C4A1A647B68022283F825207B681B68CF
:1020E0001B687A68126823F4FF4323F070031360BF
:1020F0007B681B6819687B689A687B68DB681A4391
:102100007B681B691A437B685B691A437B689B6920
:102110001A437B68DB691A437B681B6A1A437B6836
:102120001B680A431A60786800F0BCFA7B689B68F9
:10213000B3F5804F02D17B6800225A607B685A68F1
:102140007B689B6C02F07F021A607B68DB6C7A68AC
:10215000126D5A607B685B68002B10D07B685B68EF
:10216000042B0CD8786800F0E5FA7B685B6D0022E0
:102170001A607B689B6D7A68D26D5A6008E07B6854
:1021800000225A657B6800229A657B680022DA6526
:102190007B680022DA637B68012283F825207B6854
:1021A000002283F82420002318460837BD4680BD4E
:1021B00007040240F8FFFDBFCDCCCCCC00000240AC
:1021C000F8FBFDBF0004024080B586B000AFF860A8
:1021D000B9607A603B600023FB75FB6893F824309C
:1021E000012B01D1022369E0FB68012283F824203E
:1021F000FB6893F82530DBB2012B55D1FB68022236
:1022000083F82520FB680022DA63FB681B681A68E4
:10221000FB681B6822F001021A603B687A68B968A3
:10222000F86800F002FAFB681B6B002B08D0FB6813
:102230001B681A68FB681B6842F00E021A600FE008
:10224000FB681B681A68FB681B6822F004021A60AE
:10225000FB681B681A68FB681B6842F00A021A6078
:10226000FB689B6C1B6803F48033002B07D0FB6872
:102270009B6C1A68FB689B6C42F480721A60FB6866
:102280005B6D002B07D0FB685B6D1A68FB685B6DAC
:1022900042F480721A60FB681B681A68FB681B684E
:1022A00042F001021A6008E0FB688022DA63FB68F2
:1022B000002283F824200123FB75FB7D1846183784
:1022C000BD4680BD80B483B000AF78607B68002BD2
:1022D00001D101234FE07B6893F82530DBB2022B5C
:1022E00008D07B680422DA637B68002283F824200C
:1022F000012340E07B681B681A687B681B6822F03A
:102300000E021A607B689B6C1A687B689B6C22F4D7
:1023100080721A607B681B681A687B681B6822F0F1
:1023200001021A607B685B6C03F01C027B681B6C0B
:10233000012101FA02F25A607B68DB6C7A68126D47
:102340005A607B685B6D002B0CD07B685B6D1A68F4
:102350007B685B6D22F480721A607B689B6D7A6883
:10236000D26D5A607B68012283F825207B680022A9
:1023700083F82420002318460C37BD4680BC7047E4
:1023800080B584B000AF78600023FB737B6893F85E
:102390002530DBB2022B05D07B680422DA630123EF
:1023A000FB7347E07B681B681A687B681B6822F038
:1023B0000E021A607B681B681A687B681B6822F033
:1023C00001021A607B689B6C1A687B689B6C22F424
:1023D00080721A607B685B6C03F01C027B681B6C6C
:1023E000012101FA02F25A607B68DB6C7A68126D97
:1023F0005A607B685B6D002B0CD07B685B6D1A6844
:102400007B685B6D22F480721A607B689B6D7A68D2
:10241000D26D5A607B68012283F825207B680022F8
:1024200083F824207B689B6B002B03D07B689B6B1D
:1024300078689847FB7B18461037BD4680BD000082
:1024400080B584B000AF78607B681B6C1B68FB6054
:102450007B681B681B68BB607B685B6C03F01C03BC
:1024600004229A40FB681340002B27D0BB6803F07E
:102470000403002B22D07B681B681B6803F0200339
:10248000002B07D17B681B681A687B681B6822F0E9
:1024900004021A607B685B6C03F01C027B681B6C97
:1024A000042101FA02F25A607B681B6B002B00F0DA
:1024B00081807B681B6B786898477BE07B685B6CEE
:1024C00003F01C0302229A40FB681340002B3DD00E
:1024D000BB6803F00203002B38D07B681B681B68C5
:1024E00003F02003002B0BD17B681B681A687B6804
:1024F0001B6822F00A021A607B68012283F82520FB
:102500007B681B681A462E4B9A4209D97B685B6C24
:1025100003F01C032B4A022101FA03F3536008E085
:102520007B685B6C03F01C03274A022101FA03F36A
:1025300053607B68002283F824207B68DB6A002BD1
:1025400038D07B68DB6A7868984733E07B685B6CDF
:1025500003F01C0308229A40FB681340002B2AD08A
:10256000BB6803F00803002B25D07B681B681A6842
:102570007B681B6822F00E021A607B685B6C03F0BC
:102580001C027B681B6C012101FA02F25A607B6815
:102590000122DA637B68012283F825207B68002210
:1025A00083F824207B685B6B002B04D07B685B6B1B
:1025B0007868984700BF00BF1037BD4680BD00BF98
:1025C00080000240000402400000024080B485B058
:1025D00000AF786039600023FB727B68002B03D169
:1025E0000123FB72FB7A1BE07B681B681B68FB60A6
:1025F0003B6803F01003002B0DD03B6803F48013FD
:10260000002B04D0FB6843F48013FB6003E0FB68FD
:1026100023F48013FB607B681B68FA681A60FB7AFE
:1026200018461437BD4680BC704780B485B000AFF3
:10263000F860B9607A603B60FB68DB6CFA68126D29
:102640005A60FB685B6D002B04D0FB689B6DFA68D9
:10265000D26D5A60FB685B6C03F01C02FB681B6C5C
:10266000012101FA02F25A60FB681B683A685A605D
:10267000FB689B68102B08D1FB681B687A689A601E
:10268000FB681B68BA68DA6007E0FB681B68BA6819
:102690009A60FB681B687A68DA6000BF1437BD4631
:1026A00080BC704780B485B000AF78607B681B68E1
:1026B0001A461C4B9A4213D87B685B6C9B089B00A4
:1026C00003F1804303F502337A6893647B681B68E7
:1026D000DBB2083B144AA2FB03231B09FB6011E099
:1026E0007B685B6C9B089A00104B13447A68936478
:1026F0007B681B68DBB2083B0B4AA2FB03231B0968
:102700000733FB607B680A4ADA64FB6803F01F0347
:1027100001229A407B681A6500BF1437BD4680BC11
:10272000704700BF07040240CDCCCCCC1C0802404F
:102730008008024080B485B000AF78607B685B6839
:1027400003F07F03FB60FA680A4B13449B001A46B0
:102750007B685A657B68084A9A65FB68013B03F011
:10276000030301229A407B68DA6500BF1437BD4637
:1027700080BC70473F8200104009024080B487B09F
:1027800000AF7860396000237B6140E13B681A68E4
:1027900001217B6901FA03F31340FB60FB68002B06
:1027A00000F032813B685B6803F00303012B05D026
:1027B0003B685B6803F00303022B30D17B689B68A6
:1027C0003B617B695B00032202FA03F3DB433A6956
:1027D00013403B613B68DA687B695B0002FA03F3F4
:1027E0003A6913433B617B683A699A607B685B682E
:1027F0003B6101227B6902FA03F3DB433A69134030
:102800003B613B685B681B0903F001027B6902FACC
:1028100003F33A6913433B617B683A695A603B684A
:102820005B6803F00303032B17D07B68DB683B6115
:102830007B695B00032202FA03F3DB433A6913402E
:102840003B613B689A687B695B0002FA03F33A6973
:1028500013433B617B683A69DA603B685B6803F06D
:102860000303022B23D17B69DA087B68083253F813
:1028700022303B617B6903F007039B000F2202FAC1
:1028800003F3DB433A6913403B613B681A697B6998
:1028900003F007039B0002FA03F33A6913433B6119
:1028A0007B69DA087B680832396943F822107B6853
:1028B0001B683B617B695B00032202FA03F3DB4385
:1028C0003A6913403B613B685B6803F003027B6934
:1028D0005B0002FA03F33A6913433B617B683A6990
:1028E0001A603B685B6803F44033002B00F08C8077
:1028F0004E4A7B699B08023352F823303B617B6967
:1029000003F003039B00072202FA03F3DB433A6957
:1029100013403B617B68B3F1904F0DD07B68444A14
:10292000934207D07B68434A934201D1022304E0DB
:10293000072302E0012300E000237A6902F003028A
:10294000920093403A6913433B6138497B699B0885
:1029500002333A6941F82320374B1B683B61FB681F
:10296000DB433A6913403B613B685B6803F48013C7
:10297000002B03D03A69FB6813433B612E4A3B6945
:1029800013602D4B5B683B61FB68DB433A69134086
:102990003B613B685B6803F40013002B03D03A698A
:1029A000FB6813433B61244A3B695360224BD3F8D5
:1029B00080303B61FB68DB433A6913403B613B6815
:1029C0005B6803F48033002B03D03A69FB68134340
:1029D0003B61194A3B69C2F88030174BD3F8843009
:1029E0003B61FB68DB433A6913403B613B685B68D2
:1029F00003F40033002B03D03A69FB6813433B61B7
:102A00000D4A3B69C2F884307B6901337B613B68C6
:102A10001A687B6922FA03F3002B7FF4B7AE00BF7C
:102A200000BF1C37BD4680BC704700BF000001409E
:102A300000040048000800480008005880B483B033
:102A400000AF78600B467B8013467B707B78002B51
:102A500003D07A887B689A6102E07A887B689A6200
:102A600000BF0C37BD4680BC7047000080B400AF8B
:102A7000044B1B68034A43F48073136000BFBD46D8
:102A800080BC70470004005880B400AF034B1B6843
:102A900003F4C0631846BD4680BC7047000400586C
:102AA00080B400AF064B1B6803F48073B3F5807FDE
:102AB00001D1012300E000231846BD4680BC7047C9
:102AC0000004005880B400AF4FF0B0431B684FF0D3
:102AD000B04243F40013136000BFBD4680BC704792
:102AE00080B400AF4FF0B0431B684FF0B04223F406
:102AF0000013136000BFBD4680BC704780B400AFB8
:102B00004FF0B0431B6803F48013B3F5801F01D16D
:102B1000012300E000231846BD4680BC704780B406
:102B200000AF4FF0B0431B684FF0B04243F4803326
:102B3000136000BFBD4680BC704780B400AF4FF04B
:102B4000B0431B684FF0B04223F48033136000BFE2
:102B5000BD4680BC704780B400AF4FF0B0431B68E7
:102B600003F40033B3F5003F01D1012300E000235B
:102B70001846BD4680BC704780B400AF4FF0B043EC
:102B80001B684FF0B04243F48073136000BFBD4632
:102B900080BC704780B400AF4FF0B0431B684FF06B
:102BA000B04223F48073136000BFBD4680BC704701
:102BB00080B400AF4FF0B0431B6803F48063B3F5FB
:102BC000806F01D1012300E000231846BD4680BC80
:102BD000704780B483B000AF78604FF0B0435B685B
:102BE00023F0FE427B681B064FF0B04113434B605D
:102BF00000BF0C37BD4680BC704780B400AF4FF0BB
:102C0000B043D3F8903003F00203022B01D101232B
:102C100000E000231846BD4680BC704780B400AF7A
:102C20004FF0B043D3F894304FF0B04243F001037B
:102C3000C2F8943000BFBD4680BC704780B400AF7E
:102C40004FF0B043D3F894304FF0B04223F001037B
:102C5000C2F8943000BFBD4680BC704780B400AF5E
:102C60004FF0B043D3F8943003F00203022B01D1AC
:102C7000012300E000231846BD4680BC704780B4A5
:102C800000AF4FF0B0431B684FF0B04243F0010378
:102C9000136000BFBD4680BC704780B400AF4FF0EA
:102CA000B0431B684FF0B04223F00103136000BF34
:102CB000BD4680BC704780B400AF4FF0B0431B6886
:102CC00003F00203022B01D1012300E00023184688
:102CD000BD4680BC704780B400AF4FF0B0431B6866
:102CE00003F00803082B01D1012300E0002318465C
:102CF000BD4680BC704780B400AF4FF0B0431B6846
:102D000003F0F0031846BD4680BC704780B400AFA6
:102D10004FF0B043D3F8943003F470631846BD46C7
:102D200080BC704780B483B000AF78604FF0B04390
:102D30005B6823F47F427B681B024FF0B041134372
:102D40004B6000BF0C37BD4680BC704780B483B079
:102D500000AF78604FF0B0439B6823F003024FF060
:102D6000B0417B6813438B6000BF0C37BD4680BC0D
:102D7000704780B400AF4FF0B0439B6803F00C0382
:102D80001846BD4680BC704780B483B000AF786001
:102D90004FF0B0439B6823F0F0024FF0B0417B68E6
:102DA00013438B6000BF0C37BD4680BC704780B4B6
:102DB00083B000AF78604FF0B043D3F8083123F010
:102DC000F0024FF0B0417B681343C1F8083100BFF7
:102DD0000C37BD4680BC704780B483B000AF7860CC
:102DE0004FF0B043D3F8083123F00F027B681B0982
:102DF0004FF0B0411343C1F8083100BF0C37BD4656
:102E000080BC704780B483B000AF78604FF0B043AF
:102E10009B6823F4E0624FF0B0417B6813438B6002
:102E200000BF0C37BD4680BC704780B483B000AF94
:102E300078604FF0B0439B6823F460524FF0B0418C
:102E40007B6813438B6000BF0C37BD4680BC704766
:102E500080B400AF4FF0B0439B6803F0F003184616
:102E6000BD4680BC704780B400AF4FF0B043D3F88C
:102E700008311B0103F0F0031846BD4680BC7047C3
:102E800080B400AF4FF0B0439B6803F4E063184692
:102E9000BD4680BC704780B400AF4FF0B0439B6824
:102EA00003F460531846BD4680BC704780B400AF41
:102EB0004FF0B0431B684FF0B04243F08073136093
:102EC00000BFBD4680BC704780B400AF4FF0B04338
:102ED0001B684FF0B04223F08073136000BFBD4603
:102EE00080BC704780B400AF4FF0B0431B6803F064
:102EF0000073B3F1007F01D1012300E000231846E5
:102F0000BD4680BC704780B400AF4FF0B043DB6873
:102F10001B0A03F07F031846BD4680BC704780B48F
:102F200000AF4FF0B043DB6803F060431846BD4686
:102F300080BC704780B400AF4FF0B043DB6803F053
:102F400070031846BD4680BC704780B400AF4FF098
:102F5000B043DB6803F003031846BD4680BC7047EE
:102F600080B400AF4FF0B0439B6803F48033B3F5F7
:102F7000803F01D1012300E000231846BD4680BCFC
:102F8000704780B400AF4FF0B043D3F8083103F47A
:102F90000033B3F5003F01D1012300E000231846C0
:102FA000BD4680BC704780B400AF4FF0B043D3F84B
:102FB000083103F48033B3F5803F01D1012300E0F1
:102FC00000231846BD4680BC704780B400AF4FF068
:102FD000B0439B6803F40033B3F5003F01D10123F4
:102FE00000E000231846BD4680BC704780B400AFA7
:102FF0004FF0B0439B6803F48023B3F5802F01D1D9
:10300000012300E000231846BD4680BC7047000045
:1030100080B588B000AF78607B68002B01D10123B8
:103020006FE3FFF7A6FEF861FFF78FFFB8617B68DB
:103030001B6803F02003002B00F0C480FB69002B09
:1030400005D0FB690C2B76D1BB69012B73D17B6852
:103050001B6A002B01D1012353E37B689A6A4FF06E
:10306000B0431B6803F00803002B05D04FF0B043BA
:103070001B6803F0F00306E04FF0B043D3F8943040
:103080001B0903F0F003934222D27B689B6A184627
:1030900000F05AFD0346002B01D0012331E34FF02D
:1030A000B0431B684FF0B04243F0080313604FF089
:1030B000B0431B6823F0F0027B689B6A4FF0B0417D
:1030C00013430B607B685B6A1846FFF72BFE21E019
:1030D0004FF0B0431B684FF0B04243F00803136059
:1030E0004FF0B0431B6823F0F0027B689B6A4FF0FF
:1030F000B04113430B607B685B6A1846FFF712FE12
:103100007B689B6A184600F01FFD0346002B01D028
:103110000123F6E200F0E0FC0346A74A1360A74B48
:103120001B681846FEF750FE0346FB74FB7C002B21
:1031300047D0FB7CE5E27B681B6A002B2CD0FFF7B5
:103140009EFDFEF76DFB786108E0FEF769FB024625
:103150007B69D31A022B01D90323D2E2FFF7ABFD1F
:103160000346002BF1D04FF0B0431B684FF0B04244
:1031700043F0080313604FF0B0431B6823F0F002E4
:103180007B689B6A4FF0B04113430B607B685B6ABE
:103190001846FFF7C7FD15E0FFF77FFDFEF740FB80
:1031A000786108E0FEF73CFB02467B69D31A022BEC
:1031B00001D90323A5E2FFF77EFD0346002BF1D1E1
:1031C00000E000BF7B681B6803F00103002B58D0B0
:1031D000FB69082B05D0FB690C2B08D1BB69032BBD
:1031E00005D17B685B68002B4BD1012389E24FF04E
:1031F000B0431B6823F480127B689B684FF0B0419A
:1032000013430B607B685B68B3F5803F02D1FFF727
:1032100086FC0DE07B685B68B3F5041F04D1FFF703
:1032200051FCFFF77CFC03E0FFF787FCFFF758FC3D
:103230007B685B68002B12D0FEF7F2FA786108E039
:10324000FEF7EEFA02467B69D31A642B01D90323F9
:1032500057E2FFF780FC0346002BF1D011E0FEF7A8
:10326000DFFA786108E0FEF7DBFA02467B69D31AE1
:10327000642B01D9032344E2FFF76DFC0346002BC6
:10328000F1D17B681B6803F00203002B46D0FB6979
:10329000042B05D0FB690C2B0ED1BB69022B0BD183
:1032A0007B681B69002B01D101232AE27B685B69E3
:1032B0001846FFF78EFC31E07B681B69002B19D0A4
:1032C000FFF75AFCFEF7ACFA786108E0FEF7A8FABF
:1032D00002467B69D31A022B01D9032311E2FFF7BF
:1032E00067FC0346002BF1D07B685B691846FFF74B
:1032F00070FC13E0FFF74EFCFEF792FA786108E0ED
:10330000FEF78EFA02467B69D31A022B01D90323FA
:10331000F7E1FFF74DFC0346002BF1D17B681B68FA
:1033200003F00803002B6ED07B689B69002B56D0FE
:103330004FF0B043D3F89430FB607B68DA69FB68E8
:1033400003F010039A4231D0FB6803F00203002B14
:1033500006D0FB6803F00103002B01D10123D0E16B
:10336000FB6803F00103002B13D0FFF767FCFEF7A7
:1033700057FA786108E0FEF753FA02467B69D31AE0
:10338000112B01D90323BCE1FFF768FC0346002B96
:10339000F1D14FF0B043D3F8943023F010027B68A2
:1033A000DB694FF0B0411343C1F89430FFF736FCAE
:1033B000FEF736FA78610CE00400002008000020D7
:1033C000FEF72EFA02467B69D31A112B01D903238B
:1033D00097E1FFF743FC0346002BF1D013E0FFF722
:1033E0002DFCFEF71DFA786108E0FEF719FA024697
:1033F0007B69D31A112B01D9032382E1FFF72EFC3D
:103400000346002BF1D17B681B6803F00403002BFB
:1034100000F0D880FFF744FB0346002B13D1FFF7E1
:1034200025FBFEF7FDF9786108E0FEF7F9F90246A1
:103430007B69D31A022B01D9032362E1FFF730FB2A
:103440000346002BF1D07B68DB68002B7BD07B68C8
:10345000DB68852B03D07B68DB68052B09D14FF037
:10346000B043D3F890304FF0B04243F00403C2F8B9
:103470009030FEF7D5F978614FF0B043D3F8903033
:103480004FF0B04243F00103C2F890300AE0FEF77B
:10349000C7F902467B69D31A41F28832934201D9B7
:1034A00003232EE1FFF7A9FB0346002BEFD07B6837
:1034B000DB68812B03D07B68DB68852B21D1FEF78D
:1034C000AFF978614FF0B043D3F890304FF0B0428D
:1034D00043F08003C2F890300AE0FEF7A1F90246FB
:1034E0007B69D31A41F28832934201D9032308E160
:1034F0004FF0B043D3F8903003F40063002BECD0CE
:1035000060E0FEF78DF978614FF0B043D3F890306A
:103510004FF0B04223F08003C2F890300AE0FEF78B
:103520007FF902467B69D31A41F28832934201D96E
:103530000323E6E04FF0B043D3F8903003F4006388
:10354000002BECD13EE0FEF76BF978614FF0B04311
:10355000D3F890304FF0B04223F08003C2F890309F
:103560000AE0FEF75DF902467B69D31A41F2883220
:10357000934201D90323C4E04FF0B043D3F8903015
:1035800003F40063002BECD1FEF74AF978614FF0A9
:10359000B043D3F890304FF0B04223F00103C2F8AB
:1035A00090300AE0FEF73CF902467B69D31A41F2FB
:1035B0008832934201D90323A3E0FFF71EFB0346A1
:1035C000002BEFD17B68DB6A002B00F09980FB6950
:1035D0000C2B6CD07B68DB6A022B4BD1FFF774FCA1
:1035E000FEF71EF9786108E0FEF71AF902467B69DA
:1035F000D31A0A2B01D9032383E0FFF773FC034698
:10360000002BF1D14FF0B043DA68404B13407A6899
:10361000116B7A68526B11437A68926B12021143F4
:103620007A68D26B11437A68126C11437A68526CD3
:103630000A434FF0B0411343CB60FFF737FC4FF024
:10364000B043DB684FF0B04243F08053D360FEF7E5
:10365000E7F8786108E0FEF7E3F802467B69D31AE1
:103660000A2B01D903234CE0FFF73CFC0346002B57
:10367000F1D045E0FFF728FCFEF7D2F8786108E0CA
:10368000FEF7CEF802467B69D31A0A2B01D9032331
:1036900037E0FFF727FC0346002BF1D14FF0B04392
:1036A000DA684FF0B0411A4B1340CB6028E07B68DA
:1036B000DB6A012B01D1012323E04FF0B043DB682B
:1036C000BB61BB6903F003027B681B6B9A4215D197
:1036D000BB6903F070027B685B6B9A420ED1BB69D9
:1036E00003F4FE427B689B6B1B029A4206D1BB69C6
:1036F00003F060427B685B6C9A4201D0012300E0DA
:10370000002318462037BD4680BD00BF8C80C11104
:10371000FCFFFEEE80B584B000AF786039607B6856
:10372000002B01D101232CE1984B1B6803F0070308
:103730003A689A421BD9954B1B6823F007029349BC
:103740003B6813430B60FEF76BF8F86008E0FEF788
:1037500067F80246FB68D31A022B01D9032310E154
:103760008A4B1B6803F007033A689A42EFD17B68E3
:103770001B6803F00203002B16D07B689B68184679
:10378000FFF702FBFEF74CF8F86008E0FEF748F898
:103790000246FB68D31A022B01D90323F1E0FFF79D
:1037A000DFFB0346002BF1D07B681B6803F020038E
:1037B000002B16D07B685B691846FFF7F8FAFEF716
:1037C0002FF8F86008E0FEF72BF80246FB68D31AE2
:1037D000022B01D90323D4E0FFF7D3FB0346002BD0
:1037E000F1D07B681B6803F04003002B16D07B6888
:1037F0009B691846FFF7F0FAFEF712F8F86008E048
:10380000FEF70EF80246FB68D31A022B01D90323F8
:10381000B7E0FFF7C8FB0346002BF1D07B681B68BD
:1038200003F00403002B16D07B68DB681846FFF713
:10383000E9FAFDF7F5FFF86008E0FDF7F1FF024651
:10384000FB68D31A022B01D903239AE0FFF7BDFBD3
:103850000346002BF1D07B681B6803F00803002BA4
:1038600017D07B681B69DB001846FFF7DEFAFDF70F
:10387000D7FFF86008E0FDF7D3FF0246FB68D31AD4
:10388000022B01D903237CE0FFF7B0FB0346002B9A
:10389000F1D07B681B6803F00103002B43D07B68E9
:1038A0005B68022B06D1FFF756F90346002B1ED1A9
:1038B000012366E07B685B68032B06D1FFF712FBF0
:1038C0000346002B13D101235BE07B685B68002B70
:1038D00006D1FFF7F0F90346002B08D1012350E091
:1038E000FFF766F90346002B01D1012349E07B680D
:1038F0005B681846FFF72AFAFDF792FFF8600AE0C6
:10390000FDF78EFF0246FB68D31A41F288329342DC
:1039100001D9032335E0FFF72CFA02467B685B6888
:103920009B009A42ECD1194B1B6803F007033A68DD
:103930009A421BD2154B1B6823F0070213493B68C0
:1039400013430B60FDF76CFFF86008E0FDF768FFBC
:103950000246FB68D31A022B01D9032311E00B4B5B
:103960001B6803F007033A689A42EFD100F0B4F8FD
:103970000346074A1360074B1B681846FEF724FAF4
:10398000034618461037BD4680BD00BF00400058B2
:10399000040000200800002090B587B000AF00238D
:1039A0007B6100233B61FFF7E4F9B860FFF7CDFAD4
:1039B0007860BB68002B05D0BB680C2B39D17B68C5
:1039C000012B36D1FFF787F90346002B15D1FFF7FE
:1039D00082F90346012B06D1FFF78DF903461B0A36
:1039E00003F00F0305E0FFF791F903461B0A03F00C
:1039F0000F03364A52F8233014E0FFF76CF9034600
:103A0000012B06D1FFF777F903461B0903F00F03DB
:103A100005E0FFF77BF903461B0903F00F032B4A70
:103A200052F823303B61BB68002B15D13B697B61A9
:103A300012E0BB68042B02D1254B7B610CE0BB6814
:103A4000082B09D1FFF75AF80346012B02D1204B6E
:103A50007B6101E01F4B7B61FFF78BF903460C2B69
:103A60002FD1FFF772FA78607B68022B03D07B6856
:103A7000032B03D00DE0164BFB600DE0FFF73EF883
:103A80000346012B02D1124BFB6005E0114BFB609A
:103A900002E03B69FB6000BFFFF735FA0246FB68B6
:103AA00003FB02F4FFF746FA03461B090133B4FB9C
:103AB000F3F4FFF734FA03465B0F0133B4FBF3F37F
:103AC0007B617B6918461C37BD4690BDBCB40008BD
:103AD0000024F4000048E80198B500AFFFF75CFF50
:103AE0000446FFF7B5F903461B0903F00F03034A29
:103AF00052F82330B4FBF3F3184698BD5CB40008C9
:103B000098B500AFFFF7E8FF0446FFF7B9F90346A1
:103B10001B0A034A52F8233024FA03F3184698BDCF
:103B20009CB4000898B500AFFFF7D6FF0446FFF736
:103B3000B2F90346DB0A034A52F8233024FA03F3AE
:103B4000184698BD9CB4000890B585B000AF786069
:103B50007B681B0903F00F03104A52F82330FB6007
:103B6000FFF781F903461B0903F00F030C4A52F8D3
:103B70002330FA68B2FBF3F3BB60BB68094AA2FBCF
:103B800003239C0CFEF780FF03461946204600F0F5
:103B90000BF8034618461437BD4690BDBCB4000868
:103BA0005CB4000883DE1B4380B58EB000AF786044
:103BB00039603A4A07F1200392E8030018600433A1
:103BC0001980374A07F1180392E80300186004339C
:103BD0001980344A07F10C0307CA83E80700002361
:103BE0007B633B68B3F5007F1BD100233B6314E08C
:103BF0003B6B5B0038333B4433F8183C1A467B6818
:103C0000934207D83B6B9B0038333B4453F82C3C22
:103C10007B6321E03B6B01333B633B6B022BE7D9BA
:103C20001AE00023FB6214E0FB6A5B0038333B447C
:103C300033F8203C1A467B68934207D8FB6A9B0006
:103C400038333B4453F82C3C7B6305E0FB6A01337B
:103C5000FB62FB6A022BE7D9134B1B6823F00702B8
:103C600011497B6B13430B60FDF7DAFDB86208E086
:103C7000FDF7D6FD0246BB6AD31A022B01D90323F6
:103C800007E0094B1B6803F007037A6B9A42EFD1F8
:103C9000002318463837BD4680BD00BF1CB400085D
:103CA00024B400082CB400080040005880B400AFD1
:103CB0004FF0B043D3F8903003F00203022B01D150
:103CC000012300E000231846BD4680BC704780B445
:103CD00083B000AF78604FF0B043D3F888207B68A2
:103CE0001B0CDB431A407B689BB24FF0B04113437F
:103CF000C1F8883000BF0C37BD4680BC704780B427
:103D000083B000AF78604FF0B043D3F8883023F42D
:103D100040724FF0B0417B681343C1F8883000BF58
:103D20000C37BD4680BC704780B483B000AF78606C
:103D30004FF0B043D3F8883023F440624FF0B041E5
:103D40007B681343C1F8883000BF0C37BD4680BC88
:103D5000704780B483B000AF78604FF0B043D3F8C1
:103D600088207B681B0903F47F23DB431A407B68B0
:103D70001B0103F47F234FF0B0411343C1F8883097
:103D800000BF0C37BD4680BC704780B483B000AF25
:103D900078604FF0B043D3F888207B681B0C1B047D
:103DA000DB431A407B681B044FF0B0411343C1F85A
:103DB000883000BF0C37BD4680BC704780B483B0EC
:103DC00000AF78604FF0B043D3F8883023F0404222
:103DD0004FF0B0417B681343C1F8883000BF0C3707
:103DE000BD4680BC704780B483B000AF78604FF0B0
:103DF000B043D3F8883023F040524FF0B0417B6895
:103E00001343C1F8883000BF0C37BD4680BC7047F3
:103E100080B483B000AF78604FF0B043D3F89030F7
:103E200023F440724FF0B0417B681343C1F89030E7
:103E300000BF0C37BD4680BC704780B400AF4FF068
:103E4000B043D3F8903003F440731846BD4680BCAD
:103E5000704780B400AF4FF0B043D3F890304FF0CC
:103E6000B04243F48033C2F8903000BFBD4680BCFE
:103E7000704780B400AF4FF0B043D3F890304FF0AC
:103E8000B04223F48033C2F8903000BFBD4680BCFE
:103E90007047000080B586B000AF786000237B617A
:103EA0000023FB740023BB747B681B6803F480331E
:103EB000002B58D0FEF7DAFDFDF7B2FCF86009E000
:103EC000FDF7AEFC0246FB68D31A022B02D903238E
:103ED000FB7406E07B4B1B6803F48073B3F5807FB3
:103EE000EED1FB7C002B3CD1FFF7A7FF02467B689D
:103EF0005B6B9A420FD04FF0B043D3F8903023F46D
:103F000040737B61FFF7A5FFFFF7B3FF4FF0B042AF
:103F10007B69C2F890307B6903F00203002B14D058
:103F2000FDF77EFCF8600BE0FDF77AFC0246FB68CB
:103F3000D31A41F28832934202D90323FB7404E07E
:103F4000FFF7B4FE0346012BEED1FB7C002B05D11D
:103F50007B685B6B1846FFF75BFF04E0FB7CBB7480
:103F600001E0FB7CBB747B681B6803F00103002B42
:103F700004D07B685B681846FFF7A9FE7B681B6866
:103F800003F00203002B04D07B689B681846FFF700
:103F90009EFE7B681B6803F02003002B04D07B6827
:103FA0001B691846FFF7C0FE7B681B6803F40073AB
:103FB000002B04D07B681B6A1846FFF7E6FE7B687F
:103FC0001B6803F48063002B04D07B685B6A18468F
:103FD000FFF7DBFE7B681B6803F40063002B04D053
:103FE0007B689B6A1846FFF7D0FE7B681B6803F06E
:103FF0004003002B04D07B685B691846FFF7A9FEDD
:104000007B681B6803F08003002B04D07B689B69EE
:104010001846FFF79EFE7B681B6803F48073002B35
:1040200004D07B68DB691846FFF793FE7B681B684A
:1040300003F01003002B11D07B68DB681846FFF7F4
:104040005EFE7B68DB68B3F5807F07D14FF0B0433D
:10405000DB684FF0B04243F08073D3607B681B682D
:1040600003F40043002B10D07B681B6B1846FFF74E
:10407000A5FE7B681B6B002B07D14FF0B043DB68BC
:104080004FF0B04243F08073D3607B681B6803F449
:104090008043002B11D07B68DB6A1846FFF7A3FE34
:1040A0007B68DB6AB3F1005F07D14FF0B043DB6898
:1040B0004FF0B04243F48033D360BB7C18461837CE
:1040C000BD4680BD0004005880B483B000AF786066
:1040D000064B9B6823F4006204497B6813438B60A2
:1040E00000BF0C37BD4680BC704700BF00040058BD
:1040F00080B400AF054BD3F89030044A43F400433A
:10410000C2F8903000BFBD4680BC70470004005824
:1041100080B400AF054BD3F89030044A23F4004339
:10412000C2F8903000BFBD4680BC70470004005804
:1041300080B400AF034B4FF400629A6100BFBD46EC
:1041400080BC70470004005880B400AF064B5B6928
:1041500003F00203022B01D1012300E000231846E3
:10416000BD4680BC704700BF0004005880B400AF5B
:10417000064B5B6903F00403042B01D1012300E02B
:1041800000231846BD4680BC704700BF000400589D
:1041900080B400AF4FF0B043D3F894304FF0B0424A
:1041A00023F40043C2F8943000BFBD4680BC704782
:1041B00080B400AF4FF0B043D3F8943003F48043A1
:1041C000B3F5804F01D1012300E000231846BD461E
:1041D00080BC704780B483B000AF7860064BD3F8E2
:1041E000902005497B681343C1F8903000BF0C371D
:1041F000BD4680BC704700BF0008005880B584B041
:1042000000AF78607B68002B03D10123FB73FB7B3D
:1042100052E00023FB737B689B79BB73BB7B002B55
:1042200002D0BB7B032B09D17B6800225A717868CE
:10423000FDF7DCFA4FF48050FFF7CCFFBB7B002B7F
:1042400026D17B6802229A71FFF7A2FF1C4B1A68E5
:104250001346DB009B1A9B00DB0C642202FB03F37A
:10426000BB60BB68002B05D10123FB737B68012277
:104270009A6007E0BB68013BBB60FFF799FF03460C
:10428000002BEED1FFF734FF4FF40060FFF71CFF67
:10429000FFF74EFFFB7B002B0AD17B681B6818469B
:1042A00000F0ACFA7B6801221A717B6800229A60E8
:1042B0007B6801229A71FB7B18461037BD4680BD92
:1042C0000400002080B586B000AFF8607A601A461E
:1042D0000B467B8113463B81FB689B79DBB2012B4C
:1042E0004AD1FB685B79012B01D1022345E0FB68D1
:1042F00001225A71FB6802229A71F86800F04CFBA7
:10430000FFF706FF0D21F86800F098FA7B891B0A79
:104310009BB2DBB21946F86800F090FA7B89DBB2F9
:104320001946F86800F08AFA0023BB820AE0BB8ACB
:104330007A6813441B781946F86800F07FFABB8A44
:104340000133BB82BA8A3B899A42F0D3FFF7D0FE91
:10435000F86800F045FBFB689B68002B02D0012346
:10436000FB7501E00023FB75FB6801229A71FB6875
:1043700000225A71FB7D00E0022318461837BD4623
:1043800080BD80B588B000AFF8607A601A460B46F1
:104390007B8113463B817B68BB61FB689B79DBB209
:1043A000012B4AD1FB685B79012B01D1022345E047
:1043B000FB6801225A71F86800F0EEFAFFF7A8FED8
:1043C0001D21F86800F03AFA7B891B0A9BB2DBB228
:1043D0001946F86800F032FA7B89DBB21946F868B2
:1043E00000F02CFA0021F86800F028FA0023FB8284
:1043F00009E0B969F86800F077FABB690133BB617D
:10440000FB8A0133FB82FA8A3B899A42F1D3FFF798
:104410006FFEF86800F0E4FAFB689B68002B02D09E
:104420000123FB7701E00023FB77FB6801229A71EF
:10443000FB6800225A71FB7F00E0022318462037F8
:10444000BD4680BD80B586B000AFF8607A601A4680
:104450000B46FB7213463B81FB689B79DBB2012B59
:104460004AD1FB685B79012B01D1022345E0FB684F
:1044700001225A71F86800F08FFAFB7A842B02D07F
:10448000FB7A942B03D1FB6801221A7102E0FB68CE
:1044900000221A71FFF73CFEFB7A1946F86800F01B
:1044A000CDF90023BB820AE0BB8A7A6813441B78EB
:1044B0001946F86800F0C2F9BB8A0133BB82BA8A98
:1044C0003B899A42F0D3FFF713FEFB7A842B02D08C
:1044D000F86800F085FAFB689B68002B02D0012386
:1044E000FB7501E00023FB75FB6801229A71FB68F4
:1044F00000225A71FB7D00E0022318461837BD46A2
:1045000080BD80B588B000AFF8607A601A460B466F
:10451000FB7213463B817B68BB61FB689B79DBB216
:10452000012B3DD1FB685B79012B01D1022338E0DF
:10453000FB6801225A71F86800F02EFAFFF7E8FDD7
:10454000FB7A1946F86800F079F90021F86800F064
:1045500075F90023FB8209E0B969F86800F0C4F935
:10456000BB690133BB61FB8A0133FB82FA8A3B8959
:104570009A42F1D3FFF7BCFDF86800F031FAFB680E
:104580009B68002B02D00123FB7701E00023FB771F
:10459000FB6801229A71FB6800225A71FB7F00E0E0
:1045A000022318462037BD4680BD80B586B000AFD7
:1045B000F8607A601A460B46FB7213463B81FB6833
:1045C0009B79DBB2012B3ED1FB685B79012B01D1DA
:1045D000022339E0FB6801225A71F86800F0DCF927
:1045E000FFF796FD0E21F86800F028F9FB7A1946CE
:1045F000F86800F023F90023BB820AE0BB8A7A68DE
:1046000013441B781946F86800F018F9BB8A013387
:10461000BB82BA8A3B899A42F0D3FFF769FDF868FA
:1046200000F0DEF9FB689B68002B02D00123FB75CC
:1046300001E00023FB75FB6801229A71FB680022F0
:104640005A71FB7D00E0022318461837BD4680BD35
:1046500080B588B000AFF8607A601A460B46FB72EE
:1046600013463B817B68BB61FB689B79DBB2012B06
:1046700041D1FB685B79012B01D102233CE0FB684F
:1046800001225A71F86800F087F9FFF741FD1E21F9
:10469000F86800F0D3F8FB7A1946F86800F0CEF815
:1046A0000021F86800F0CAF80023FB8209E0B9692C
:1046B000F86800F019F9BB690133BB61FB8A01336B
:1046C000FB82FA8A3B899A42F1D3FFF711FDF86821
:1046D00000F086F9FB689B68002B02D00123FB7772
:1046E00001E00023FB77FB6801229A71FB6800223E
:1046F0005A71FB7F00E0022318462037BD4680BD7B
:1047000080B584B000AF78600023BB8107F10C0254
:10471000022312217868FFF7F4FE3B7BFB81FB89C3
:104720001B021AB27B7B1BB213431BB2FB8107F146
:104730000C02022302217868FFF784FEFB8903F054
:104740000103002B02D0786805F0FEF9FB8903F025
:104750000203002B02D0786805F004FAFB8903F00D
:104760000403002B02D0786805F054FAFB8903F0AB
:104770000803002B02D0786805F05AFAFB8903F091
:104780001003002B02D0786805F060FAFB8903F073
:104790002003002B02D0786805F02EFAFB8903F085
:1047A0004003002B02D0786805F0EAF9FB8903F09A
:1047B0008003002B0DD0FB8903F48073002B04D001
:1047C0000121786805F0EAF903E00021786805F036
:1047D000E5F9FB8903F40073002B02D0786805F03B
:1047E000FBF9FB8903F48043002B02D0786805F0C5
:1047F0003BFA00BF1037BD4680BD000080B483B0D7
:1048000000AF78600C4B1B680B4A23F04003136029
:10481000094A7B6843F441731360074B4FF4B85265
:104820005A60054B1B68044A43F04003136000BF05
:104830000C37BD4680BC70470000015880B487B07B
:1048400000AF78600B46FB700023FB75234B1A68A2
:104850001346DB009B1A9B00DB0C642202FB03F374
:10486000FB60FB68002B05D10123FB757B680122EF
:104870009A6008E0FB68013BFB60194B9B6803F002
:104880000203022BEDD1174B3B613B69FA781A709A
:10489000124B1A681346DB009B1A9B00DB0C642248
:1048A00002FB03F3FB60FB68002B05D10123FB75C2
:1048B0007B6801229A6008E0FB68013BFB60084BC3
:1048C0009B6803F00103012BEDD1054BDB68FB7DF9
:1048D00018461C37BD4680BC704700BF040000204E
:1048E000000001580C00015880B487B000AF786018
:1048F00039600023FB75254B1A681346DB009B1AB1
:104900009B00DB0C642202FB03F3FB60FB68002BC3
:1049100005D10123FB757B6801229A6008E0FB68E2
:10492000013BFB601A4B9B6803F00203022BEDD1A5
:10493000184B3B613B69FF221A70144B1A681346EF
:10494000DB009B1A9B00DB0C642202FB03F3FB6081
:10495000FB68002B05D10123FB757B6801229A605F
:1049600008E0FB68013BFB60094B9B6803F0010317
:10497000012BEDD1064BDB68DAB23B681A70FB7D88
:1049800018461C37BD4680BC704700BF040000209D
:10499000000001580C00015880B584B000AF786069
:1049A0007B681B79012B11D10C4B1A6813465B00F5
:1049B0001344DB001B0CFB60FFF7AAFBFB68013B09
:1049C000FB60FB68002BF9D1FFF792FB786800F0E1
:1049D00007F8034618461037BD4680BD0400002086
:1049E00080B586B000AF78600023FB75124B1A6863
:1049F00013465B001344DB001B0D642202FB03F330
:104A0000FB60FFF7B3FB3861FB68002B05D1012386
:104A1000FB757B6802229A6009E0FB68013BFB6042
:104A2000FFF792FB02463B691340012BE9D0FB7D67
:104A300018461837BD4680BD0400002080B582B0FE
:104A400000AF78607B68002B01D1012349E07B68CF
:104A500093F83D30DBB2002B06D17B68002283F84F
:104A60003C207868FCF79EFF7B68022283F83D209B
:104A70007B681A687B6804331946104600F090FA88
:104A80007B68012283F848207B68012283F83E205E
:104A90007B68012283F83F207B68012283F8402055
:104AA0007B68012283F841207B68012283F8422041
:104AB0007B68012283F843207B68012283F844202D
:104AC0007B68012283F845207B68012283F8462019
:104AD0007B68012283F847207B68012283F83D2010
:104AE000002318460837BD4680BD000080B485B05D
:104AF00000AF78607B6893F83D30DBB2012B01D0CA
:104B000001232EE07B68022283F83D207B681B682E
:104B1000164A934204D07B681B68B3F1804F15D1CD
:104B20007B681B689A68124B1340FB60FB68062B7E
:104B300015D0FB68B3F5803F11D07B681B681A68FD
:104B40007B681B6842F001021A6008E07B681B6802
:104B50001A687B681B6842F001021A6000E000BF1F
:104B6000002318461437BD4680BC7047002C014016
:104B70000700010080B582B000AF78607B681B68D9
:104B80001B6903F00203022B22D17B681B68DB68E0
:104B900003F00203022B1BD17B681B686FF002023B
:104BA0001A617B6801221A777B681B689B6903F096
:104BB0000303002B03D0786800F0D6F905E078688D
:104BC00000F0C9F9786800F0D8F97B6800221A77FC
:104BD0007B681B681B6903F00403042B22D17B68EC
:104BE0001B68DB6803F00403042B1BD17B681B6884
:104BF0006FF004021A617B6802221A777B681B68D7
:104C00009B6903F44073002B03D0786800F0ACF983
:104C100005E0786800F09FF9786800F0AEF97B68ED
:104C200000221A777B681B681B6903F00803082BB6
:104C300022D17B681B68DB6803F00803082B1BD1BB
:104C40007B681B686FF008021A617B6804221A7780
:104C50007B681B68DB6903F00303002B03D07868D3
:104C600000F082F905E0786800F075F9786800F0E6
:104C700084F97B6800221A777B681B681B6903F044
:104C80001003102B22D17B681B68DB6803F0100334
:104C9000102B1BD17B681B686FF010021A617B68B8
:104CA00008221A777B681B68DB6903F44073002BCA
:104CB00003D0786800F058F905E0786800F04BF907
:104CC000786800F05AF97B6800221A777B681B68C5
:104CD0001B6903F00103012B0ED17B681B68DB68A5
:104CE00003F00103012B07D17B681B686FF0010201
:104CF0001A61786800F026F97B681B681B6903F06D
:104D00008003802B0ED17B681B68DB6803F0800377
:104D1000802B07D17B681B686FF080021A6178686E
:104D200000F09FFA7B681B681B6903F48073B3F57E
:104D3000807F0ED17B681B68DB6803F08003802BCB
:104D400007D17B681B686FF480721A61786800F085
:104D500091FA7B681B681B6903F04003402B0ED15E
:104D60007B681B68DB6803F04003402B07D17B683E
:104D70001B686FF040021A61786800F007F97B68E1
:104D80001B681B6903F02003202B0ED17B681B6876
:104D9000DB6803F02003202B07D17B681B686FF0D2
:104DA00020021A61786800F053FA00BF0837BD4648
:104DB00080BD80B584B000AF786039600023FB739C
:104DC0007B6893F83C30012B01D10223B6E07B686D
:104DD000012283F83C207B68022283F83D207B6817
:104DE0001B689B68BB60BB6823F4441323F0770304
:104DF000BB60BB6823F47F43BB607B681B68BA68F9
:104E00009A603B681B68B3F5005F3ED0B3F5005F66
:104E100000F28780B3F5805F00F08680B3F5805F95
:104E20007FD8702B1AD0702B7BD8602B50D0602B82
:104E300077D8502B3CD0502B73D8402B58D0402BD8
:104E40006FD8302B64D0302B6BD8202B60D0202B28
:104E500067D8002B5CD0102B5AD062E07B681868B2
:104E60003B6899683B685A683B68DB6800F073F9F7
:104E70007B681B689B68BB60BB6843F07703BB60C3
:104E80007B681B68BA689A604FE07B6818683B686B
:104E900099683B685A683B68DB6800F05CF97B689E
:104EA0001B689A687B681B6842F480429A603CE009
:104EB0007B6818683B6859683B68DB681A4600F0F5
:104EC000D1F87B681B685021184600F028F92CE0C7
:104ED0007B6818683B6859683B68DB681A4600F0D5
:104EE000EFF87B681B686021184600F018F91CE099
:104EF0007B6818683B6859683B68DB681A4600F0B5
:104F0000B1F87B681B684021184600F008F90CE0F6
:104F10007B681A683B681B681946104600F0FFF86A
:104F200003E00123FB7300E000BF7B68012283F8EC
:104F30003D207B68002283F83C20FB7B184610371D
:104F4000BD4680BD80B483B000AF786000BF0C3731
:104F5000BD4680BC704780B483B000AF786000BFAE
:104F60000C37BD4680BC704780B483B000AF78601A
:104F700000BF0C37BD4680BC704780B483B000AF23
:104F8000786000BF0C37BD4680BC704780B483B0EA
:104F900000AF786000BF0C37BD4680BC7047000092
:104FA00080B485B000AF786039607B681B68FB60B7
:104FB0007B68294A934203D07B68B3F1804F08D1C4
:104FC000FB6823F07003FB603B685B68FA6813437F
:104FD000FB607B68204A93420BD07B68B3F1804F23
:104FE00007D07B681D4A934203D07B681C4A9342DA
:104FF00008D1FB6823F44073FB603B68DB68FA6808
:105000001343FB60FB6823F080023B685B6913433A
:10501000FB607B68FA681A603B689A687B68DA62B2
:105020003B681A687B689A627B680B4A934207D098
:105030007B680A4A934203D07B68094A934203D1B2
:105040003B681A697B681A637B6801225A6100BF5A
:105050001437BD4680BC7047002C0140004401401D
:105060000048014080B487B000AFF860B9607A6052
:10507000FB681B6A7B61FB681B6A23F00102FB680B
:105080001A62FB689B693B613B6923F0F0033B615B
:105090007B681B013A6913433B617B6923F00A0378
:1050A0007B617A69BB6813437B61FB683A699A61EB
:1050B000FB687A691A6200BF1C37BD4680BC704726
:1050C00080B487B000AFF860B9607A60FB681B6A93
:1050D00023F01002FB681A62FB689B697B61FB6826
:1050E0001B6A3B617B6923F470437B617B681B0314
:1050F0007A6913437B613B6923F0A0033B61BB6882
:105100001B013A6913433B61FB687A699A61FB684A
:105110003A691A6200BF1C37BD4680BC704780B434
:1051200085B000AF786039607B689B68FB60FB6886
:1051300023F4401323F07003FB603A68FB681343C9
:1051400043F00703FB607B68FA689A6000BF14377E
:10515000BD4680BC704780B487B000AFF860B960CE
:105160007A603B60FB689B687B617B6923F47F43CB
:105170007B613B681A027B681A43BB6813437A69F8
:1051800013437B61FB687A699A6000BF1C37BD4698
:1051900080BC704780B485B000AF786039607B68B0
:1051A00093F83C30012B01D102234AE07B680122B5
:1051B00083F83C207B68022283F83D207B681B68D3
:1051C0005B68FB607B681B689B68BB607B681B68D7
:1051D0001E4A934208D1FB6823F47003FB603B68CE
:1051E0005B68FA681343FB60FB6823F07003FB60A5
:1051F0003B681B68FA681343FB607B681B68FA68AE
:105200005A607B681B68114A934204D07B681B6814
:10521000B3F1804F0CD1BB6823F08003BB603B68C7
:105220009B68BA681343BB607B681B68BA689A6066
:105230007B68012283F83D207B68002283F83C20B4
:10524000002318461437BD4680BC7047002C01402F
:1052500080B483B000AF786000BF0C37BD4680BC1F
:10526000704780B483B000AF786000BF0C37BD4694
:1052700080BC704780B483B000AF786000BF0C374B
:10528000BD4680BC704780B483B000AF78604FF0FB
:10529000B043D3F888207B681A407B681B04134313
:1052A00018460C37BD4680BC704780B483B000AF51
:1052B00078604FF0B043D3F888207B6813401846DD
:1052C0000C37BD4680BC704780B582B000AF7860B7
:1052D0007B68002B01D1012342E07B68D3F8883042
:1052E000002B06D17B68002283F884207868FCF7C5
:1052F00065FC7B682422C3F888207B681B681A68D9
:105300007B681B6822F001021A60786800F048FC94
:105310000346012B01D1012322E07B689B6A002B0D
:1053200002D0786800F0B0FE7B681B685A687B6822
:105330001B6822F490425A607B681B689A687B68FD
:105340001B6822F02A029A607B681B681A687B68D7
:105350001B6842F001021A60786800F036FF0346CD
:1053600018460837BD4680BD80B58AB002AFF860E8
:10537000B9603B601346FB80FB68D3F88830202B74
:1053800073D1BB68002B02D0FB88002B01D1012315
:105390006CE0FB680022C3F89020FB682122C3F870
:1053A0008820FCF73DFA7861FB68FA88A3F854205E
:1053B000FB68FA88A3F85620FB689B68B3F5805F0A
:1053C00008D1FB681B69002B04D10023FB61BB687B
:1053D000BB6103E0BB68FB610023BB612CE03B6861
:1053E00000937B6900228021F86800F03CFF0346AF
:1053F000002B01D0032339E0FB69002B0BD1BB69E3
:105400001B881A46FB681B68C2F308029A62BB69D4
:105410000233BB6107E0FB691A78FB681B689A627C
:10542000FB690133FB61FB68B3F856309BB2013B6B
:105430009AB2FB68A3F85620FB68B3F856309BB2CB
:10544000002BCCD13B6800937B6900224021F86897
:1054500000F009FF0346002B01D0032306E0FB68A0
:105460002022C3F88820002300E0022318462037BA
:10547000BD4680BD80B58AB000AFF860B960134604
:10548000FB80FB68D3F88C30202B37D1BB68002B16
:1054900002D0FB88002B01D1012330E0FB68002201
:1054A000DA66FB681B68184A93421FD0FB681B68CA
:1054B0005B6803F40003002B18D0FB681B687B615A
:1054C0007B6953E8003F3B613B6943F080637B624B
:1054D000FB681B681A467B6A3B62FA61F9693A6AA3
:1054E00041E80023BB61BB69002BE6D1FB881A466B
:1054F000B968F86800F080FF034600E00223184610
:105500002837BD4680BD00BF0080004080B5BAB0DE
:1055100000AF78607B681B68DB69C7F8E4307B68A4
:105520001B681B68C7F8E0307B681B689B68C7F87E
:10553000DC30D7F8E42040F60F031340C7F8D8302A
:10554000D7F8D830002B1BD1D7F8E43003F0200374
:10555000002B15D0D7F8E03003F02003002B05D145
:10556000D7F8DC3003F08053002B09D07B685B6FE9
:10557000002B00F0E3827B685B6F78689847DDE280
:10558000D7F8D830002B00F02381D7F8DC208D4BE2
:105590001340002B06D1D7F8E0208B4B1340002B93
:1055A00000F01681D7F8E43003F00103002B11D08E
:1055B000D7F8E03003F48073002B0BD07B681B68B6
:1055C00001221A627B68D3F8903043F001027B68B5
:1055D000C3F89020D7F8E43003F00203002B11D079
:1055E000D7F8DC3003F00103002B0BD07B681B687D
:1055F00002221A627B68D3F8903043F004027B6881
:10560000C3F89020D7F8E43003F00403002B11D046
:10561000D7F8DC3003F00103002B0BD07B681B684C
:1056200004221A627B68D3F8903043F002027B6850
:10563000C3F89020D7F8E43003F00803002B17D00C
:10564000D7F8E03003F02003002B05D1D7F8DC2099
:105650005C4B1340002B0BD07B681B6808221A623E
:105660007B68D3F8903043F008027B68C3F8902041
:10567000D7F8E43003F40063002B12D0D7F8E03001
:1056800003F08063002B0CD07B681B684FF4006232
:105690001A627B68D3F8903043F020027B68C3F82D
:1056A00090207B68D3F89030002B00F04982D7F827
:1056B000E43003F02003002B13D0D7F8E03003F0E0
:1056C0002003002B05D1D7F8DC3003F08053002BEA
:1056D00007D07B685B6F002B03D07B685B6F7868BB
:1056E00098477B68D3F89030C7F8D4307B681B6844
:1056F0009B6803F04003402B05D0D7F8D43003F06B
:105700002803002B54D0786800F05CFF7B681B688E
:105710009B6803F04003402B46D17B681B6808332D
:10572000C7F89C30D7F89C3053E8003FC7F8983052
:10573000D7F8983023F04003C7F8D0307B681B6857
:105740000833D7F8D020C7F8A820C7F8A430D7F876
:10575000A410D7F8A82041E80023C7F8A030D7F854
:10576000A030002BD9D17B68D3F88030002B17D024
:105770007B68D3F88030154A9A637B68D3F8803011
:105780001846FCF7FDFD0346002B19D07B68D3F8C3
:1057900080309B6B7A68D2F88020104698470FE0E3
:1057A000786800F0E9F90BE0786800F0E5F907E0C7
:1057B000786800F0E1F97B680022C3F89020BFE12F
:1057C00000BFBDE10100001020010004796800085D
:1057D0007B68DB6E012B40F05381D7F8E43003F097
:1057E0001003002B00F04C81D7F8E03003F01003D9
:1057F000002B00F045817B681B6810221A627B68D1
:105800001B689B6803F04003402B40F0BB807B6823
:10581000D3F880301B685B68A7F8BE30B7F8BE309D
:10582000002B00F08F817B68B3F85C30B7F8BE20A6
:105830009A4280F087817B68B7F8BE20A3F85E208B
:105840007B68D3F880301B681B6803F02003002BB3
:1058500040F087807B681B68C7F88830D7F88830AD
:1058600053E8003FC7F88430D7F8843023F48073BE
:10587000C7F8B8307B681B681A46D7F8B830C7F845
:105880009430C7F89020D7F89010D7F8942041E8CA
:105890000023C7F88C30D7F88C30002BDAD17B6826
:1058A0001B6808337B677B6F53E8003F3B673B6FA8
:1058B00023F00103C7F8B4307B681B680833D7F8BE
:1058C000B420C7F88020FB67F96FD7F8802041E843
:1058D0000023BB67BB6F002BE1D17B681B680833DB
:1058E0003B663B6E53E8003FFB65FB6D23F04003D6
:1058F000C7F8B0307B681B680833D7F8B020FA6669
:10590000BB66B96EFA6E41E800237B667B6E002BA6
:10591000E3D17B682022C3F88C207B680022DA6602
:105920007B681B68FB64FB6C53E8003FBB64BB6C8B
:1059300023F01003C7F8AC307B681B681A46D7F811
:10594000AC30BB657A65796DBA6D41E800233B6583
:105950003B6D002BE4D17B68D3F880301846FCF710
:10596000B1FC7B6802221A677B68B3F85C207B6815
:10597000B3F85E309BB2D31A9BB21946786800F038
:1059800004F9DFE07B68B3F85C207B68B3F85E3035
:105990009BB2D31AA7F8CE307B68B3F85E309BB2C7
:1059A000002B00F0D180B7F8CE30002B00F0CC8077
:1059B0007B681B68BB63BB6B53E8003F7B637B6BFF
:1059C00023F49073C7F8C8307B681B681A46D7F871
:1059D000C8307B643A64396C7A6C41E80023FB631D
:1059E000FB6B002BE4D17B681B6808337B627B6A0E
:1059F00053E8003F3B623B6A23F0805323F00103EE
:105A0000C7F8C4307B681B680833D7F8C4203A63F2
:105A1000FB62F96A3A6B41E80023BB62BB6A002B68
:105A2000E1D17B682022C3F88C207B680022DA66F3
:105A30007B6800225A677B681B683B613B6953E8BF
:105A4000003FFB60FB6823F01003C7F8C0307B68A1
:105A50001B681A46D7F8C030FB61BA61B969FA69A8
:105A600041E800237B617B69002BE4D17B68022243
:105A70001A67B7F8CE301946786800F086F863E008
:105A8000D7F8E43003F48013002B0ED0D7F8DC30C5
:105A900003F48003002B08D07B681B684FF480124E
:105AA0001A62786800F029FF51E0D7F8E43003F07B
:105AB0008003002B14D0D7F8E03003F08003002BD4
:105AC00005D1D7F8DC3003F40003002B08D07B6845
:105AD0009B6F002B3AD07B689B6F7868984735E0C6
